:100000000C9446000C9465000C9465000C946500FB
:100010000C9465000C94E9010C9401020C946500A9
:100020000C9465000C9465000C9465000C946500BC
:100030000C9465000C9465000C9465000C946500AC
:100040000C94A80C0C9465000C9465000C9465004D
:100050000C9465000C9465000C9465000C9465008C
:100060000C9465000C9465000C9465000C9465007C
:100070000C9465000C9465000C9465000C9465006C
:100080000C9465000C9465000C94650011241FBE4F
:10009000CFEFD0E1DEBFCDBF12E0A0E0B1E0E0EBFA
:1000A000FAE100E00BBF02C007900D92A431B10746
:1000B000D9F71BE0A4E1B2E001C01D92A13EB10757
:1000C000E1F70E949D020C94560D0C9400008FEFF6
:1000D00084BB8093640083E082BB80EC80937000DB
:1000E000E1E7F0E080818C7F80830895982F84EA97
:1000F000809374008091740087FFFCCF8091710021
:10010000887F883029F080917100887F803191F755
:1001100088E98093730084E8809374008091740070
:1001200087FFFCCF80917100887F8831B9F7909369
:10013000730084E8809374008091740087FFFCCF83
:1001400080917100887F8832B9F76093730084E8EA
:10015000809374008091740087FFFCCF80917100C0
:10016000887F8832B9F784E9809374000895982FC6
:1001700084EA809374008091740087FFFCCF8091A3
:100180007100887F883029F080917100887F8031EC
:1001900091F788E98093730084E8809374008091DC
:1001A000740087FFFCCF80917100887F8831B9F798
:1001B0009093730084E8809374008091740087FFAB
:1001C000FCCF80917100887F8832B9F784E98093F1
:1001D0007400089584EA809374008091740087FF0E
:1001E000FCCF80917100887F883029F08091710068
:1001F000887F803191F789E98093730084E8809348
:1002000074008091740087FFFCCF80917100887F1B
:100210008034B9F784EC809374008091740087FF78
:10022000FCCF80917100887F8035B9F730917300E1
:1002300084EC809374008091740087FFFCCF8091E0
:100240007100887F8035B9F72091730084E980932D
:100250007400932F80E030E0282B392BC9010895DA
:100260006F927F928F929F92AF92BF92CF92DF92C6
:10027000EF92FF920F931F93DF93CF93CDB7DEB72B
:1002800064970FB6F894DEBF0FBECDBFAC0165E03A
:10029000E62EF12CEC0EFD1ED701E0E0F1E08CE043
:1002A00001900D928150E1F781E0898382E08A8399
:1002B00084E08B8388E08C83CC24C394A0E0B0E0FE
:1002C00030E4A32E3FE1B32E21E1622E712C6C0E9F
:1002D0007D1E4E010894811C911C57FD5BC09BE064
:1002E000D92ECA0180709F77292F47FD4FC000E0AB
:1002F000E0E0F0E0822F6AE00E94280D0E94280DC5
:10030000192F822F0E94280DEE0DFF1D808185BBC5
:10031000C092650020E030E0F5013197F1F72F5FE2
:100320003F4F24303105C4F4098B9A8B1B8BDC8A38
:10033000F301E20FF31F8081F701E80FF11D8081C7
:1003400085BBF401E20FF31F8081809365002130AB
:10035000310511F7AF9AE0CF1196A436B10509F037
:10036000BCCF64960FB6F894DEBF0FBECDBFCF9161
:10037000DF911F910F91FF90EF90DF90CF90BF9092
:10038000AF909F908F907F906F90089505E0E5E08B
:10039000F0E0B0CF8AE0D82E4095509541505040C3
:1003A000A0CF17B887E886B90895369A349BFECF58
:1003B00024B145B1942F80E030E0282B392BC901BE
:1003C0000895883C910510F01BBA08958FEF8BBB00
:1003D00008951F920F920FB60F9211248F939F933F
:1003E00081E090E0909315028093140280E49CE9F0
:1003F0000197F1F79F918F910F900FBE0F901F9073
:1004000018951F920F920FB60F9211248F939F93FE
:10041000109215021092140280E49CE90197F1F702
:100420009F918F910F900FBE0F901F901895EF9294
:10043000FF920F931F93DF93CF930F92CDB7DEB749
:1004400081E060E00E94760080E00E94B7007E01BB
:100450000894E11CF11C809116029091170261E052
:1004600042E820E030E087010E94BE090E94EA00D5
:100470000E943001F0CFDF92EF92FF920F931F9313
:10048000DF93CF930F92CDB7DEB78FEF8ABB7E019C
:100490000894E11CF11CDD24DA94809116029091FD
:1004A000170262E042E820E030E087010E94BE09C6
:1004B0000E94D501883C10F4DBBAEFCF1BBAEDCF18
:1004C0000F931F93DF93CF930F92CDB7DEB78FEFCC
:1004D00084BB8FE0809364008FEC82B98AE08ABF8E
:1004E00080E389BF8FB780688FBF8E010F5F1F4F7A
:1004F00004C082E390E00E9454068091140290911F
:100500001502019781F08091140290911502892BB8
:1005100081F7809116029091170262E041E0980104
:100520000E944709E6CF809116029091170261E080
:1005300041E098010E944709E6CFDF93CF930F92E5
:10054000CDB7DEB70E94600BF89487E083BF81E0EF
:1005500087BF84E682BF789480E090E00E94D30455
:10056000909319028093180280E0BE016F5F7F4F65
:100570000E94F303909317028093160217B887E83E
:1005800086B90E94670080E692E060E070E049E989
:1005900052E020E00E94AA0787E192E060E070E06C
:1005A00049E153E021E00E94AA078BE392E060E07A
:1005B00070E049E953E022E00E94AA070E94E00AA5
:1005C00080E090E00F90CF91DF910895FA01808351
:1005D000929312921292129212921292129212927A
:1005E00012921292129212921292129212921292EB
:1005F00012921292129212921292129212921292DB
:100600001292629372931292129212921292129218
:100610001292129280E882933197CF010895089543
:1006200008950895089508950895089508950895E2
:1006300080919B03813009F0089580917A058F3F66
:10064000D9F38F5F80937A05089580919B03813061
:1006500009F00895F89480919A038F3F19F08F5F05
:1006600080939A03789408958CEF90E00895FF9218
:100670000F931F93CF93DF93EC018B01F42E3981FD
:10068000E32FF0E0EC5EFE4F2081422F50E0FA01B4
:10069000E45FFE4F7081DC01A40FB51F16969C919C
:1006A0001697E92FF0E0EC5EFE4F8081E82FF0E036
:1006B000E45FFE4F6081220F220F220F280F862F4A
:1006C0008095892316968C93882321F4872F809513
:1006D00038233983E22FF0E0EE0FFF1FED53F44F84
:1006E0000190F081E02D14861386178216821187FF
:1006F00000878F2D8095958589238587882359F4D8
:1007000080917405872B80937405FA01EB58FA4F9A
:100710008081682B6083822FDF91CF911F910F9191
:10072000FF900895CF93DF93EC01A0917B05B091EA
:100730007C0517969C938E93169750968C915097A4
:10074000482F50E051963C915197FA01EB58FA4FDF
:10075000832F80959081892380838823A9F45296E2
:100760002C91922F90958091740589238093740524
:10077000FE01E40FF51F8681832B86838981822BFE
:100780008983DF91CF91089552962C91F1CFCF9329
:10079000DF93EC01A0917B05B0917C0550968C9184
:1007A0005097FE01E80FF11D51968C91519780955D
:1007B000968189238683882339F452969C91529797
:1007C00090958981892389831D961C921D97179680
:1007D0001C921E921697DF91CF910895FC01118211
:1007E000168217820895282FDB0180917A058823CD
:1007F000D9F4F894E091C00BF091C10B309779F0E7
:10080000818192819093C10B8093C00B85E080839E
:1008100023831282118278941C92CF0108957894D8
:100820008AE98C93CF0108958DE88C93E0E0F0E0A5
:10083000F4CFEF92FF920F931F93CF93DF937C013E
:10084000FB01A0917B05B0917C051D968C911D97B5
:1008500080621D968C931D971C961C930E931B977C
:1008600040872187B583A483E70189819A81918399
:10087000808313821282F782E68289819A810097AF
:1008800019F0EC017B836A83E701FA83E9835096D0
:10089000EC915097F0E0EB58FA4F51968C915197AC
:1008A0008095908189238083882341F452969C917E
:1008B000909580917405892380937405DF91CF9181
:1008C0001F910F91FF90EF90089521EA33E0F90115
:1008D000CF010496108292838183FC0183E0E53C82
:1008E000F807B1F7128211823093C10B2093C00B2D
:1008F0000895CF93DF93FC01A281B381C081D181A0
:10090000109751F01196DC93CE93209711F0BB8392
:10091000AA83DF91CF9108950680F781E02DD283DD
:10092000C1832097B1F31B821A82DF91CF91089582
:100930001F93CF93DF93EC01AC81BD811C961C9279
:100940001E921B971A966C931A971D968C911D9761
:100950008F7D1D968C931D978823E1F480917405FB
:1009600052969C915297892B809374055096EC91E6
:100970005097F0E0EB58FA4F808151969C91892B6B
:10098000808311E0CE010E947904812FDF91CF9105
:100990001F91089510E0CE010E947904812FDF910C
:1009A000CF911F9108959C0180917A058823D9F4F5
:1009B000F894E0917705F0917805309731F08481D3
:1009C000958190937805809377057894309749F0D6
:1009D00081E0808313821282358324831182168200
:1009E0001782CF010895E0E0F0E0CF0108959C0167
:1009F00080917A05882309F052C0F894E091770538
:100A0000F0917805309731F0848195819093780545
:100A10008093770578943097A9F1F894A0917205A6
:100A2000B0917305109781F18D919C9111979093DE
:100A3000730580937205789413963C932E931297C6
:100A4000CB01880F991F820F931F15969C938E934D
:100A5000149717963C932E93169719963C932E93C2
:100A600018971B967C936E931A971D961C921E9254
:100A70001C9782E0808313821282B583A483118243
:100A800016821782CF01089580917705909178059D
:100A900095838483F0937805E09377057894E0E07C
:100AA000F0E0CF01089586E694E0FC013E97918343
:100AB00080830E9625E080379207B9F71092630580
:100AC0001092620588E594E0909373058093720517
:100AD00008959C0180917A058823D9F4F894E091D7
:100AE0007705F0917805309731F084819581909366
:100AF0007805809377057894309749F083E0808378
:100B00003383228315821482118216821782CF01C9
:100B10000895E0E0F0E0CF0108951F93CF93DF93B5
:100B2000182FF894C0915404D0915504209709F4DB
:100B300056C08A819B819093550480935404789485
:100B4000798368831E871D861C861B86E12FE695A8
:100B5000E695E695E88BF0E0E45FFE4F80818A8BB6
:100B6000E12FE770EF87F0E0E45FFE4F8081898B33
:100B70001F821E8219861886CE010E941703CE019D
:100B80000E940F03F894E12FF0E0EE0FFF1FED53EA
:100B9000F44FD183C083E091CA03F091CB03FB8370
:100BA000EA831D821C82309711F0D583C483D093D1
:100BB000CB03C093CA03809174059A89892B8093D3
:100BC0007405E889F0E0EB58FA4F80819989892B08
:100BD0008083789480E0DF91CF911F91089578947D
:100BE00086E4DF91CF911F910895F89480919C0342
:100BF00090919D03A0919E03B0919F030196A11D2A
:100C0000B11D80939C0390939D03A0939E03B0938A
:100C10009F0378940E941603E8CFF89480917A0598
:100C2000882309F03FC080919A038823D9F5E09189
:100C30007405F0E0EC5EFE4F8081E82FF0E0EB58A9
:100C4000FA4FE081F0E0EC5EFE4F982F990F990F7C
:100C5000990F8081980F9093A0038091C9039817F2
:100C600009F1E92FF0E0EE0FFF1FED53F44F808103
:100C70009181909371058093700580914C049091BF
:100C80004D04A0914E04B0914F040196A11DB11DD9
:100C900080934C0490934D04A0934E04B0934F0462
:100CA0000E940E0C789408959C01009721F1F8940D
:100CB000A0917B05B0917C055096EC915097F0E0A7
:100CC000EB58FA4F51968C915197809590818923DA
:100CD0008083882349F452969C91529790958091F5
:100CE00074058923809374051C963C932E931B975F
:100CF00078940E940D0608958F929F92AF92BF92B2
:100D0000CF92DF92EF92FF920F931F93CF93DF93D7
:100D1000882E162F942E8823C9F01C3300F58BE300
:100D2000891590F093E0283E3907D8F083E5DF91EC
:100D3000CF911F910F91FF90EF90DF90CF90BF90D8
:100D4000AF909F908F90089582E5F1CF662329F7A9
:100D5000442329F72115310529F784E5E8CF81E5FA
:100D6000E6CFB90180E090E024E630E040E050E0DA
:100D70000E94090D6C507E4F8F4F9F4F28EE33E03D
:100D800040E050E00E94340D59016A01612F70E08B
:100D900080E090E02CE330E040E050E00E94090D5C
:100DA0007B018C01E90CF11C011D111D682D70E007
:100DB00080E090E020E13EE040E050E00E94090D3C
:100DC000E60EF71E081F191FC801B70124E630E020
:100DD00040E050E00E94090DA60EB71EC81ED91EA5
:100DE000760100271127E7018FEF9FEFA0E0B0E029
:100DF000A822B922CA22DB22C5010E945406EF288C
:100E000051F080E090E80E94540680E090E80E9453
:100E100054062197B1F780E08ACFDF92EF92FF92DC
:100E20000F931F938091C20B882341F488EC90E0CC
:100E30000E9454068091C20B8823C1F36091500434
:100E400070915104809152049091530424E630E053
:100E500040E050E00E94340DC901DA017C018D01AF
:100E6000E4E6DE2E10C0A80197010E94340D8D2DFE
:100E7000821B87FD44C0809356040E94120384E6BF
:100E800090E00E945406F89480919C0390919D03F9
:100E9000A0919E03B0919F038093DD0B9093DE0B96
:100EA000A093DF0BB093E00B60919C0370919D03C6
:100EB00080919E0390919F0310929C0310929D033A
:100EC00010929E0310929F037894E114F10401059F
:100ED000110549F610925604609150047091510426
:100EE000809152049091530424E630E040E050E0B9
:100EF0000E94340DC901DA017C018D01BECF109230
:100F00005604BBCF82E090E00E945406F894109201
:100F10009C0310929D0310929E0310929F0378945D
:100F200084E690E00E945406F89480919C0390918E
:100F30009D03A0919E03B0919F03809350049093D2
:100F40005104A0935204B093530481E08093C20BE8
:100F500078940895AF92BF92CF92DF92EF92FF9272
:100F60000F931F93CF93DF93FC01122FF894C22F9E
:100F7000D0E0CC0FDD1FCD53D44F88819981892BD0
:100F800071F0789418E2812FDF91CF911F910F912A
:100F9000FF90EF90DF90CF90BF90AF90089581E0E9
:100FA00090E0998388837894CF0120E030E00E941C
:100FB000E602BC01812F40E050E020E030E0EE246A
:100FC000FF248701CC24DD24AA24BB240E948D05A4
:100FD000182F882371F4F894809157048F5F8093C1
:100FE0005704789480919B03813069F60E940D0626
:100FF000CACFF894198218827894C5CFFC01F8946E
:101000008181882379F4828193812FEF8F3F92072A
:1010100031F0019693838283789480E008957894E8
:1010200082E30895CF0160E070E041E00E94370361
:1010300078940E940D0680E008950F931F93CF933C
:10104000DF93EC018A0180917A05882381F4F8947A
:101050008A819B81009799F001979B838A8378947A
:10106000FA011082DF91CF911F910F91089582E0D4
:10107000FA018083DF91CF911F910F910895E09144
:101080007B05F0917C058585816085877487638702
:10109000CE010E94920378940E940D06F894E0918C
:1010A0007B05F0917C05858580FD0AC0178216823C
:1010B0007894F8011082DF91CF911F910F910895DC
:1010C000CE010E94C70378948AE0F8018083CACFDA
:1010D000EF92FF920F931F93CF93DF938C017A01CE
:1010E00080917A05882309F05CC0F894F801A48106
:1010F000B5811C968D919C911D97009709F11896CA
:10110000ED91FC911997C191D1911996FC93EE93B1
:10111000189701971D969C938E931C9714968D910A
:101120009C911597E817F90799F17894F7011082C7
:10113000CE01DF91CF911F910F91FF90EF90089515
:10114000E0917B05F0917C058585846085877487B7
:101150006387C8010E94920378940E940D06F89458
:10116000E0917B05F0917C05C085D1852097F9F051
:10117000118610861586178216827894F7011082E0
:10118000CE01DF91CF911F910F91FF90EF900895C5
:1011900012968D919C91139719969C938E93189704
:1011A000C4CF82E0FA018083C0E0D0E0C1CFC801A3
:1011B0000E94C70378948AE0F7018083B9CFFC01CD
:1011C000F8948181882339F484819581892B61F099
:1011D000789484E10895CF0142E00E943703789427
:1011E0000E940D0680E0089575836483789480E002
:1011F0000895EF92FF920F931F93CF93DF938C018B
:101200007A0180917A058823A1F5F894F801C481C8
:10121000D581209769F0158214827894FA011082A2
:10122000CE01DF91CF911F910F91FF90EF90089524
:10123000E0917B05F0917C058585826085877487C8
:101240006387C8010E94920378940E940D06F89467
:10125000E0917B05F0917C05C085D185209779F0E0
:10126000118610861586178216827894F7011082EF
:10127000D7CF82E0FA018083C0E0D0E0D1CFC801AF
:101280000E94C70378948AE0F7018083C9CFCF9288
:10129000DF92EF92FF920F931F93DF93CF930F9202
:1012A000CDB7DEB78C017901F894442309F054C01E
:1012B0006095FC01838186238383F801C180D280FD
:1012C000C114D10409F458C019820AC08330B1F1A5
:1012D000F601808191819C01690121153105D1F0D0
:1012E000F6018185823091F7F6016085F8018381EE
:1012F0008623681769F7C6010E949804813041F778
:10130000F1E0F983F601808191819C016901211549
:10131000310531F77894F981F13059F1F894F801F9
:1013200083817894F70110820F90CF91DF911F9104
:101330000F91FF90EF90DF90CF900895F6016085B8
:10134000F8018381682309F4C3CFC6010E94980481
:10135000813009F0BDCFD4CF413031F0789489E9A4
:10136000F901808380E0E0CFFC018381862B8383B9
:10137000A4CF0E940D06D2CF1982CCCF8F929F921C
:10138000AF92BF92CF92DF92FF920F931F93DF93A2
:10139000CF93CDB7DEB72B970FB6F894DEBF0FBE55
:1013A000CDBF6C01562FF42EF901580180917A05BA
:1013B000882309F547FD24C01B86F89482E0F816BF
:1013C00039F1A3E0FA16C9F1789487E9F501808331
:1013D00080E02B960FB6F894DEBF0FBECDBFCF9145
:1013E000DF911F910F91FF90DF90CF90BF90AF9052
:1013F0009F908F90089582E0D8018C9380E0E9CF90
:10140000BFE7FB2221E02B87F89482E0F816C9F6AB
:10141000D60113969C91852F8923851709F5BB85E5
:10142000B13031F4852F80958923F6018383982F7D
:10143000892F7894D5011C92CCCFD60113969C911C
:10144000852F892369F1BB85B13029F480958923E3
:10145000F6018383982F892F7894D5011C92B9CFF8
:10146000C6014E010894811C911CB401452F22E055
:101470008F010E94190478940E940D06F894E0915F
:101480007B05F0917C05858585FD17C0BB85B13056
:1014900011F1F6019381892F7894D5011C9299CF8F
:1014A000C6014E010894811C911CB401452F23E014
:1014B0008F010E9419047894DFCFC4010E9479043F
:1014C000E0917B05F0917C05158678948AE0D50142
:1014D0008C9380E07ECF2EEFF20E81E08F1520F40A
:1014E000D60113969C91D7CF82858095F601938182
:1014F00098239383D0CF80919B03813009F0089586
:10150000F89480919A03882359F0815080939A032C
:10151000882321F480917A05882321F07894089516
:101520007894089578940E940D0608950E941303FC
:1015300080919B03813009F00895A091CA03B09176
:10154000CB031E968C911E978C30B1F320917405BD
:1015500041E050E01AC052968C915297282B509639
:10156000EC915097F0E0EB58FA4F808151969C91A6
:101570005197892B808312960D90BC91A02D789461
:101580001E968C911E978C30C1F0F8941B968D910D
:101590009C911C97009779F301971C969C938E93CE
:1015A0001B97892B41F71D968C911D9783FFD3CFF5
:1015B0001C965C934E931B97DECF20937405089581
:1015C00080919B0381110895E0917405F0E0EC5E39
:1015D000FE4FA081EA2FF0E0EB58FA4FE081F0E0F7
:1015E000EC5EFE4FAA0FAA0FAA0F8081A80FA0934E
:1015F000A003A093C903B0E0AA0FBB1FAD53B44F23
:101600008D919C91909371058093700590937C05CA
:1016100080937B050E94DA0B089580919B038130B3
:1016200009F00895F89480917A05882339F0815063
:1016300080937A05882311F07894089580919A0315
:101640008823D1F7E0917405F0E0EC5EFE4F8081D5
:1016500080937905E82FF0E0EB58FA4FE081F0E055
:10166000EC5EFE4F982F990F990F990F8081980F7C
:101670009093A0038091C9039817F1F2E92FF0E04D
:10168000EE0FFF1FED53F44F808191819093710510
:101690008093700580914C0490914D04A0914E046C
:1016A000B0914F040196A11DB11D80934C049093FD
:1016B0004D04A0934E04B0934F040E94710CBCCF14
:1016C0000E94140310927A0510929A031092570404
:1016D00010929B0310924C0410924D0410924E04F1
:1016E00010924F0410929C0310929D0310929E033F
:1016F00010929F0310927405109275051092760552
:101700001092C9031092A0031092710510927005F7
:1017100010927C0510927B051092CB031092CA03A5
:10172000E3ECFBE0119211922BE0ED3DF207D1F7D3
:1017300080E097E0FC0171979183808343962BE0D2
:10174000803C9207B9F71092B00B1092AF0B8DEE60
:1017500096E090935504809354042DEF35E0F90101
:10176000CF010896108295838483FC0186E0E53ED4
:10177000F807B1F710821582148230937805209310
:1017800077050E9465040E94530585EF95E060E0AF
:1017900070E04CEF55E02CE00E94AA078DE097E046
:1017A00060E070E04BE454E02BE00E94AA070E9446
:1017B000150308950E94110300919B030395009364
:1017C0009B03E0917005F0917105C191CDBFD1915E
:1017D000DEBF0F910FBF0F910BBFFF91EF91DF9114
:1017E000CF91BF91AF919F918F917F916F915F91B9
:1017F0004F913F912F911F910F91FF90EF90DF90AC
:10180000CF90BF90AF909F908F907F906F905F90A0
:101810004F903F902F901F900F9008950F921F921E
:101820002F923F924F925F926F927F928F929F92F0
:10183000AF92BF92CF92DF92EF92FF920F931F93DE
:101840002F933F934F935F936F937F938F939F93C8
:10185000AF93BF93CF93DF93EF93FF930BB70F93A8
:101860000FB70F93E0917B05F0917C05CDB7C19345
:10187000DEB7D1930E9411030091A0030093C90326
:10188000E0917005F0917105E0937B05F0937C0584
:10189000C191CDBFD191DEBF0F910FBF0F910BBF93
:1018A000FF91EF91DF91CF91BF91AF919F918F9178
:1018B0007F916F915F914F913F912F911F910F9168
:1018C000FF90EF90DF90CF90BF90AF909F908F9060
:1018D0007F906F905F904F903F902F901F900F9050
:1018E00008950E9411030091A0030093C903E091A1
:1018F0007005F0917105E0937B05F0937C05C19133
:10190000CDBFD191DEBF0F910FBF0F910BBFFF91E4
:10191000EF91DF91CF91BF91AF919F918F917F9187
:101920006F915F914F913F912F911F910F91FF9078
:10193000EF90DF90CF90BF90AF909F908F907F906F
:101940006F905F904F903F902F901F900F90089551
:101950000F921F922F923F924F925F926F927F92BF
:101960008F929F92AF92BF92CF92DF92EF92FF92AF
:101970000F931F932F933F934F935F936F937F9397
:101980008F939F93AF93BF93CF93DF93EF93FF9387
:101990000BB70F930FB700680F9300917A0503956B
:1019A00000937A05013041F4CDB7DEB7E0917B05B5
:1019B000F0917C05C193D19304E602BF78940E9414
:1019C000960A00000E940D0B0F910FBF0F910BBFE5
:1019D000FF91EF91DF91CF91BF91AF919F918F9147
:1019E0007F916F915F914F913F912F911F910F9137
:1019F000FF90EF90DF90CF90BF90AF909F908F902F
:101A00007F906F905F904F903F902F901F900F901E
:101A10000895629FD001739FF001829FE00DF11D38
:101A2000649FE00DF11D929FF00D839FF00D749F58
:101A3000F00D659FF00D9927729FB00DE11DF91F04
:101A4000639FB00DE11DF91FBD01CF011124089561
:101A5000991B79E004C0991F961708F0961B881F00
:101A60007A95C9F780950895A1E21A2EAA1BBB1B8F
:101A7000FD010DC0AA1FBB1FEE1FFF1FA217B3075A
:101A8000E407F50720F0A21BB30BE40BF50B661F70
:101A9000771F881F991F1A9469F760957095809534
:101AA00090959B01AC01BD01CF010895F894FFCF43
:101AB0003F065B4F666D7C077F67400001020408AC
:101AC000102040800000010002000100030001001E
:101AD00002000100040001000200010003000100F7
:101AE00002000100050001000200010003000100E6
:101AF00002000100040001000200010003000100D7
:101B000002000100060001000200010003000100C4
:101B100002000100040001000200010003000100B6
:101B200002000100050001000200010003000100A5
:101B30000200010004000100020001000300010096
:101B40000200010007000100020001000300010083
:101B50000200010004000100020001000300010076
:101B60000200010005000100020001000300010065
:101B70000200010004000100020001000300010056
:101B80000200010006000100020001000300010044
:101B90000200010004000100020001000300010036
:101BA0000200010005000100020001000300010025
:101BB0000200010004000100020001000300010016
:041BC000020001001E
:00000001FF
