:100000000C9446000C9465000C9465000C946500FB
:100010000C9465000C945A030C9420030C94650016
:100020000C9465000C9465000C94ED010C94650033
:100030000C9465000C9465000C9465000C946500AC
:100040000C9454100C9465000C9465000C9465009D
:100050000C9465000C9465000C9465000C9465008C
:100060000C9465000C9465000C9465000C9465007C
:100070000C9465000C9465000C9465000C9465006C
:100080000C9465000C9465000C94650011241FBE4F
:10009000CFEFD0E1DEBFCDBF13E0A0E0B1E0EEE7EF
:1000A000FBE200E00BBF02C007900D92AA33B1073C
:1000B000D9F710E1AAE3B3E001C01D92AD33B10757
:1000C000E1F70E94A8050C94BD150C9400008FEF79
:1000D00084BB8FE08093640083E082BB80B58B7F1C
:1000E00080BD1092710080E28093700084E4809360
:1000F00074000895982F84EA8093740080917400AE
:1001000087FFFCCF80917100887F883029F0809133
:100110007100887F803191F788E98093730084E8CB
:10012000809374008091740087FFFCCF80917100F0
:10013000887F8831B9F79093730084E880937400C6
:100140008091740087FFFCCF80917100887F883296
:10015000B9F76093730084E8809374008091740011
:1001600087FFFCCF80917100887F8832B9F784E9DE
:10017000809374000895982F84EA8093740080918E
:10018000740087FFFCCF80917100887F883029F050
:1001900080917100887F803191F788E980937300A6
:1001A00084E8809374008091740087FFFCCF809175
:1001B0007100887F8831B9F79093730084E8809349
:1001C00074008091740087FFFCCF80917100887F5C
:1001D0008832B9F784E980937400089584EA8093A3
:1001E00074008091740087FFFCCF80917100887F3C
:1001F000883029F080917100887F803191F789E9FA
:100200008093730084E8809374008091740087FF6A
:10021000FCCF80917100887F8034B9F784EC8093A3
:1002200074008091740087FFFCCF80917100887FFB
:100230008035B9F73091730084EC8093740080911D
:10024000740087FFFCCF80917100887F8035B9F7FB
:100250002091730084E980937400932F80E030E054
:10026000282B392BC90108956F927F928F929F920C
:10027000AF92BF92CF92DF92EF92FF920F931F93B4
:10028000DF93CF93CDB7DEB764970FB6F894DEBF98
:100290000FBECDBFAC0165E0E62EF12CEC0EFD1ECD
:1002A000D701EDE1F1E08CE001900D928150E1F792
:1002B00081E0898382E08A8384E08B8388E08C8379
:1002C000CC24C394A0E0B0E030E4A32E3FE1B32EF1
:1002D00021E1622E712C6C0E7D1E4E010894811C52
:1002E000911C57FD5BC09BE0D92ECA0180709F779F
:1002F000292F47FD4FC000E0E0E0F0E0822F6AE0E8
:100300000E9431150E943115192F822F0E9431153C
:10031000EE0DFF1D808185BBC092650020E030E0BE
:10032000F5013197F1F72F5F3F4F24303105C4F4C9
:10033000098B9A8B1B8BDC8AF301E20FF31F808100
:10034000F701E80FF11D808185BBF401E20FF31F77
:100350008081809365002130310511F7AF9AE0CF9D
:100360001196A436B10509F0BCCF64960FB6F89487
:10037000DEBF0FBECDBFCF91DF911F910F91FF90D8
:10038000EF90DF90CF90BF90AF909F908F907F9035
:100390006F90089505E0E5E0F0E0B0CF8AE0D82E58
:1003A0004095509541505040A0CF17B887E886B986
:1003B0000895369A349BFECF24B145B1942F80E046
:1003C00030E0282B392BC9010895883C910510F0A5
:1003D0001BBA08958FEF8BBB08951F920F920FB633
:1003E0000F920BB60F9211248F939F93EF93FF936D
:1003F00080914203909143030197D9F080E188BB3B
:1004000081E090E09093430380934203E0914003A6
:10041000F0914103E15FFE4F808184BDFF91EF9138
:100420009F918F910F900BBE0F900FBE0F901F905A
:10043000189518BA1092430310924203E7CFEF9237
:10044000FF920F931F939C0197FD43C08BE0809315
:100450006903A9019A0120703F773093ED0740931B
:100460006C03832F6AE00E9431150E943115E92F39
:1004700090936803832F0E9431159093670347FD83
:1004800031C080E00F2EFAE9EF2EF9E9FF2EF9E9ED
:100490000F2FF0EC1F2FF02D80936603692F70E073
:1004A000605172402AE0E29F90011124620F731F95
:1004B000882777FD8095982F0E94BF129B01AC0181
:1004C000C801B7010E9432121F910F91FF90EF9067
:1004D00008958AE080936903A901409550954150A1
:1004E0005040B8CF85E00F2EFAE9EF2EF9E9FF2E44
:1004F000F9E80F2FF0EC1F2FF02DCECFAF92BF9267
:10050000CF92DF92EF92FF920F931F93DF93CF93DF
:100510000F92CDB7DEB78FEF8ABB87BB83E085BD77
:100520008FEC82B98AE08ABF80E389BFE091400303
:10053000F0914103E15FFE4F808184BD78945E01BC
:100540000894A11CB11CE0E4DE2E70E9E72E71E0F6
:10055000F72ECC24C39480915A0390915B036FEFE4
:1005600042E820E030E085010E946A0D40E0809181
:100570003E0390913F03019709F58BB380958BBBA8
:10058000D7BE24EF31E0C7010197F1F72150304089
:10059000D1F78091400390914103019662E070E0B1
:1005A0000E943D1590934103809340034F5F483C68
:1005B000F1F681E090E00E94BF09CDCFC7BE1BBA23
:1005C000F8CFEF92FF920F931F93DF93CF930F9289
:1005D000CDB7DEB77E010894E11CF11C80916A035F
:1005E00090916B0362E042E820E030E087010E94D6
:1005F0006A0D1BBA81E090E00E94BF09EFCFDF9245
:10060000EF92FF920F931F93DF93CF930F92CDB78B
:10061000DEB77E010894E11CF11CDD24DA948091A0
:100620006A0390916B0361E042E820E030E08701CB
:100630000E946A0DDBBA81E090E00E94BF09EFCF13
:100640001F920F920FB60F920BB60F9211242F9399
:100650003F934F935F936F937F938F939F93AF934A
:10066000BF93EF93FF9310923F0310923E0318BA8B
:100670001BBA109243031092420310923D03109252
:100680003C0381E087BF81E090E00E94BF09FF91B9
:10069000EF91BF91AF919F918F917F916F915F91FA
:1006A0004F913F912F910F900BBE0F900FBE0F9067
:1006B0001F9018951F920F920FB60F920BB60F92C4
:1006C00011242F933F934F935F936F937F938F9357
:1006D0009F93AF93BF93EF93FF9381E090E090934C
:1006E0003F0380933E031BBA0E94BF09FF91EF9125
:1006F000BF91AF919F918F917F916F915F914F913A
:100700003F912F910F900BBE0F900FBE0F901F9037
:1007100018950F931F93DF93CF930F92CDB7DEB74A
:100720008FEF8ABB8E010F5F1F4F04C081E090E006
:100730000E94BF09809100019091010197FDF6CFC1
:1007400080913E0390913F03019781F78091480388
:100750009091490360E070E0A8010E94A50CFC01A3
:100760000190F081E02D8FEFEF3FF80729F0EE5F69
:10077000FE4F80818BBBDACF1BBAD8CFDF92EF92CE
:10078000FF920F931F93DF93CF93CDB7DEB72D97D3
:100790000FB6F894DEBF0FBECDBF8FEF84BB8FE0E6
:1007A00080936400F2E0EF2EF12CEC0EFD1ED701D9
:1007B000E1E1F1E08CE001900D928150E1F78E01D2
:1007C0000F5F1F4FDD24D394809156039091570300
:1007D00060E070E0A8010E94A50CFC01808191817D
:1007E0006AE070E00E943D15FC019093EF07809352
:1007F000EE07EE0DFF1D808185BBD0926500E4CF32
:10080000EF92FF920F931F93DF93CF930F92CDB789
:10081000DEB78FEF84BB8FE0809364008FEC82B9EA
:100820008AE08ABF80E389BF8FB780688FBF8E015F
:100830000F5F1F4FEE24EA94FE2C04C081E090E08D
:100840000E94BF0980913E0390913F030197A1F060
:1008500080913E0390913F03892B81F7F092010133
:10086000E0920001809146039091470362E041E0ED
:1008700098010E94F30CE2CF8091460390914703C8
:1008800061E041E098010E94F30CE2CF6F927F9209
:100890008F929F92AF92BF92CF92DF92EF92FF9290
:1008A0000F931F93DF93CF930F92CDB7DEB78FEFE8
:1008B0008ABB0E94670081E060E00E947A0080E0CD
:1008C0000E94BB003E010894611C711C809146038C
:1008D0009091470361E042E820E030E083010E940C
:1008E0006A0D0E94EE004C010E94340180910001CB
:1008F000909101018F5F9F4F09F44CC0C4010E9489
:100900001F025B016C0180914403909145030E949A
:100910001F027B018C01C601B501A80197010E944D
:100920005F121816BCF480910001909101010497A8
:10093000D1F1809148039091490360E071E00E94F9
:100940008B0C80910001909101010196909301011F
:1009500080930001C601B501A80197010E948F1282
:1009600088239CF4809100019091010197FD0DC0B6
:100970000197909301018093000180914803909129
:10098000490360E071E00E948B0C909245038092D5
:1009900044039CCF9092450380924403109201013E
:1009A0001092000193CF80915A0390915B036FEFF7
:1009B00041E093010E94F30C10920101109200019A
:1009C000C9CFEF92FF920F931F93DF93CF930F92B4
:1009D000CDB7DEB78FEF8ABB00E010E07E01089450
:1009E000E11CF11C0530110524F1ECE5F3E020E0F9
:1009F00030E080819181019791F1329683E0E63673
:100A0000F807B9F72530310569F1232B49F48091B6
:100A10006A0390916B0362E041E097010E94F30C3E
:100A200081E090E00E94BF0900E010E00530110570
:100A3000E4F680914A0390914B0360E070E0A701D7
:100A40000E94140CFC01D801AA0FBB1FA45ABC4F72
:100A5000808191818D939C930F5F1F4FC3CF2F5F38
:100A60003F4FCBCF80916A0390916B0361E041E0EF
:100A700097010E94F30CD4CFAF92BF92CF92DF9236
:100A8000EF92FF920F931F93DF93CF9300D00F92BB
:100A9000CDB7DEB78FEF8ABB84BB8FE08093640055
:100AA00017B887E886B96E010894C11CD11C22E0F2
:100AB000E22EF12CEC0EFD1E91E0A92EB12C21C0EE
:100AC00080913A0390913B03853091052CF4019677
:100AD00090933B0380933A03BB82AA8280914A039E
:100AE00090914B03B7010E94D30B809156039091D4
:100AF00057036AE373E00E948B0C82E390E00E944C
:100B0000BF09809146039091470362E042E820E0EC
:100B100030E086010E946A0D80913C0390913D0374
:100B2000019690933D0380933C030E94D901883C39
:100B300038F280913A0390913B03181619062CF471
:100B4000019790933B0380933A031B821A82C6CF8E
:100B50000F931F93DF93CF930F92CDB7DEB70E9411
:100B60000C0FF89487E083BF81E087BF84E682BFE3
:100B700080E090E00E943E089093490380934803F0
:100B80008CE493E065E070E00E94620890934B0370
:100B900080934A0380E090E00E943E0890935703C0
:100BA0008093560380E08E010F5F1F4FB8010E94B3
:100BB0005E07909347038093460380E0B8010E944C
:100BC0005E0790935B0380935A0380E0B8010E9414
:100BD0005E0790936B0380936A0380E0B8010E94E4
:100BE0005E079093590380935803789480E094E0D3
:100BF00060E070E04CEE53E020E00E94150B86E4CC
:100C000094E060E070E04CEE57E028E00E94150BA5
:100C10008CE395E060E070E04CEE56E026E00E9448
:100C2000150B89E893E060E070E04CEE55E024E0BD
:100C30000E94150B8EE792E060E070E04CE655E014
:100C400023E00E94150B81EE94E060E070E04CE63A
:100C500056E025E00E94150B8FEF92E060E070E017
:100C60004CE654E021E00E94150B81EE92E060E03A
:100C700070E04CEE54E022E00E94150B8EEB93E006
:100C800060E070E04CE657E027E00E94150B0E9400
:100C90008C0E80E090E00F90CF91DF911F910F912B
:100CA0000895FA01808392931292129212921292F4
:100CB0001292129212921292129212921292129214
:100CC0001292129212921292129212921292129204
:100CD0001292129212921292629372931292129242
:100CE0001292129212921292129280E8829331978B
:100CF000CF010895089508950895089508950895D9
:100D00000895089508958091F707813009F00895B6
:100D10008091D6098F3FD9F38F5F8093D6090895CC
:100D20008091F707813009F00895F8948091F607D3
:100D30008F3F19F08F5F8093F607789408958CEFBA
:100D400090E00895FF920F931F93CF93DF93EC01F0
:100D50008B01F42E3981E32FF0E0EF5CFE4F208110
:100D6000422F50E0FA01E75DFE4F7081DC01A40FD5
:100D7000B51F16969C911697E92FF0E0EF5CFE4F99
:100D80008081E82FF0E0E75DFE4F6081220F220FA7
:100D9000220F280F862F8095892316968C938823FF
:100DA00021F4872F809538233983E22FF0E0EE0F6E
:100DB000FF1FE15EFF4E0190F081E02D1486138647
:100DC00017821682118700878F2D8095958589233C
:100DD0008587882359F48091D009872B8093D00987
:100DE000FA01EF52F64F8081682B6083822FDF91EA
:100DF000CF911F910F91FF900895CF93DF93EC0156
:100E0000A091D709B091D80917969C938E93169705
:100E100050968C915097482F50E051963C915197A5
:100E2000FA01EF52F64F832F8095908189238083BA
:100E30008823A9F452962C91922F90958091D009F5
:100E400089238093D009FE01E40FF51F8681832B4F
:100E500086838981822B8983DF91CF910895529671
:100E60002C91F1CFCF93DF93EC01A091D709B091F2
:100E7000D80950968C915097FE01E80FF11D5196BC
:100E80008C9151978095968189238683882339F4A4
:100E900052969C91529790958981892389831D96BA
:100EA0001C921D9717961C921E921697DF91CF9158
:100EB0000895FC011182168217820895282FDB0104
:100EC0008091D6098823D9F4F894E0911C10F09110
:100ED0001D10309779F08181928190931D1080933D
:100EE0001C1085E0808323831282118278941C92E7
:100EF000CF01089578948AE98C93CF0108958DE805
:100F00008C93E0E0F0E0F4CFEF92FF920F931F9309
:100F1000CF93DF937C01FB01A091D709B091D80951
:100F20001D968C911D9780621D968C931D971C9623
:100F30001C930E931B9740872187B583A483E701F9
:100F400089819A819183808313821282F782E6825B
:100F500089819A81009719F0EC017B836A83E7010C
:100F6000FA83E9835096EC915097F0E0EF52F64FF8
:100F700051968C9151978095908189238083882305
:100F800041F452969C9190958091D0098923809349
:100F9000D009DF91CF911F910F91FF90EF900895AD
:100FA0002DEF37E0F901CF010496108292838183FF
:100FB000FC0188E0E132F807B1F712821182309328
:100FC0001D1020931C100895CF93DF93FC01A28184
:100FD000B381C081D181109751F01196DC93CE93EB
:100FE000209711F0BB83AA83DF91CF9108950680EB
:100FF000F781E02DD283C1832097B1F31B821A823F
:10100000DF91CF9108951F93CF93DF93EC01AC81D3
:10101000BD811C961C921E921B971A966C931A9770
:101020001D968C911D978F7D1D968C931D978823FF
:10103000E1F48091D00952969C915297892B80932C
:10104000D0095096EC915097F0E0EF52F64F808126
:1010500051969C91892B808311E0CE010E94E40778
:10106000812FDF91CF911F91089510E0CE010E9452
:10107000E407812FDF91CF911F9108959C0180910A
:10108000D6098823D9F4F894E091D309F091D409D2
:10109000309731F0848195819093D4098093D3095E
:1010A0007894309749F081E08083138212823583EF
:1010B0002483118216821782CF010895E0E0F0E0C8
:1010C000CF0108959C018091D609882309F052C070
:1010D000F894E091D309F091D409309731F08481EC
:1010E00095819093D4098093D30978943097A9F18E
:1010F000F894A091CE09B091CF09109781F18D910C
:101100009C9111979093CF098093CE097894139670
:101110003C932E931297CB01880F991F820F931F38
:1011200015969C938E93149717963C932E9316972F
:1011300019963C932E9318971B967C936E931A974F
:101140001D961C921E921C9782E08083138212824D
:10115000B583A483118216821782CF0108958091EE
:10116000D3099091D40995838483F093D409E093B3
:10117000D3097894E0E0F0E0CF01089582EC98E0A4
:10118000FC013E97918380830E9629E08C3C920768
:10119000B9F71092BF091092BE0984EB98E09093C2
:1011A000CF098093CE0908959C018091D6098823A8
:1011B000D9F4F894E091D309F091D409309731F043
:1011C000848195819093D4098093D3097894309742
:1011D00049F083E080833383228315821482118255
:1011E00016821782CF010895E0E0F0E0CF01089564
:1011F0001F93CF93DF93182FF894C091B008D0912C
:10120000B108209709F456C08A819B819093B10858
:101210008093B0087894798368831E871D861C8626
:101220001B86E12FE695E695E695E88BF0E0E75D15
:10123000FE4F80818A8BE12FE770EF87F0E0E75D5A
:10124000FE4F8081898B1F821E8219861886CE01EF
:101250000E948206CE010E947A06F894E12FF0E007
:10126000EE0FFF1FE15EFF4ED183C083E0912608A1
:10127000F0912708FB83EA831D821C82309711F0CE
:10128000D583C483D0932708C09326088091D009C2
:101290009A89892B8093D009E889F0E0EF52F64FC4
:1012A00080819989892B8083789480E0DF91CF9128
:1012B0001F910895789486E4DF91CF911F9108954E
:1012C000F8948091F8079091F907A091FA07B091EE
:1012D000FB070196A11DB11D8093F8079093F907B4
:1012E000A093FA07B093FB0778940E948106E8CF99
:1012F000F8948091D609882309F03FC08091F607C1
:101300008823D9F5E091D009F0E0EF5CFE4F8081B1
:10131000E82FF0E0EF52F64FE081F0E0EF5CFE4F97
:10132000982F990F990F990F8081980F9093FC0730
:1013300080912508981709F1E92FF0E0EE0FFF1FC3
:10134000E15EFF4E808191819093CD098093CC091D
:101350008091A8089091A908A091AA08B091AB0823
:101360000196A11DB11D8093A8089093A908A09390
:10137000AA08B093AB080E94BA0F789408959C0114
:10138000009721F1F894A091D709B091D80950960F
:10139000EC915097F0E0EF52F64F51968C915197A7
:1013A0008095908189238083882349F452969C916B
:1013B000529790958091D00989238093D0091C96EB
:1013C0003C932E931B9778940E94780908958F92EE
:1013D0009F92AF92BF92CF92DF92EF92FF920F93C4
:1013E0001F93CF93DF93882E162F942E8823C9F056
:1013F0001C3300F58BE3891590F093E0283E390704
:10140000D8F083E5DF91CF911F910F91FF90EF907E
:10141000DF90CF90BF90AF909F908F90089582E51E
:10142000F1CF662329F7442329F72115310529F740
:1014300084E5E8CF81E5E6CFB90180E090E024E6DD
:1014400030E040E050E00E9412156C507E4F8F4F0C
:101450009F4F28EE33E040E050E00E9450155901C4
:101460006A01612F70E080E090E02CE330E040E022
:1014700050E00E9412157B018C01E90CF11C011D4A
:10148000111D682D70E080E090E020E13EE040E03A
:1014900050E00E941215E60EF71E081F191FC80122
:1014A000B70124E630E040E050E00E941215A60E9D
:1014B000B71EC81ED91E760100271127E7018FEF3E
:1014C0009FEFA0E0B0E0A822B922CA22DB22C5012A
:1014D0000E94BF09EF2851F080E090E80E94BF0908
:1014E00080E090E80E94BF092197B1F780E08ACFA1
:1014F000DF92EF92FF920F931F9380911E1088232B
:1015000041F488EC90E00E94BF0980911E1088236E
:10151000C1F36091AC087091AD088091AE089091D4
:10152000AF0824E630E040E050E00E945015C901C9
:10153000DA017C018D01E4E6DE2E10C0A8019701DE
:101540000E9450158D2D821B87FD44C08093B208E8
:101550000E947D0684E690E00E94BF09F894809185
:10156000F8079091F907A091FA07B091FB078093D3
:10157000391090933A10A0933B10B0933C106091B7
:10158000F8077091F9078091FA079091FB07109284
:10159000F8071092F9071092FA071092FB07789457
:1015A000E114F1040105110549F61092B2086091A9
:1015B000AC087091AD088091AE089091AF0824E618
:1015C00030E040E050E00E945015C901DA017C0192
:1015D0008D01BECF1092B208BBCF82E090E00E9496
:1015E000BF09F8941092F8071092F9071092FA07C1
:1015F0001092FB07789484E690E00E94BF09F8946B
:101600008091F8079091F907A091FA07B091FB0734
:101610008093AC089093AD08A093AE08B093AF0848
:1016200081E080931E1078940895AF92BF92CF927C
:10163000DF92EF92FF920F931F93CF93DF93FC0102
:10164000122FF894C22FD0E0CC0FDD1FC15EDF4E09
:1016500088819981892B71F0789418E2812FDF912C
:10166000CF911F910F91FF90EF90DF90CF90BF909F
:10167000AF90089581E090E0998388837894CF01BA
:1016800020E030E00E945106BC01812F40E050E094
:1016900020E030E0EE24FF248701CC24DD24AA24BE
:1016A000BB240E94F808182F882371F4F8948091C5
:1016B000B3088F5F8093B30878948091F7078130E7
:1016C00069F60E947809CACFF89419821882789432
:1016D000C5CFFC01F8948181882379F482819381BC
:1016E0002FEF8F3F920731F0019693838283789496
:1016F00080E00895789482E30895CF0160E070E07F
:1017000041E00E94A20678940E94780980E0089542
:101710000F931F93CF93DF93EC018A018091D60939
:10172000882381F4F8948A819B81009799F001972E
:101730009B838A837894FA011082DF91CF911F9165
:101740000F91089582E0FA018083DF91CF911F917C
:101750000F910895E091D709F091D80985858160AE
:10176000858774876387CE010E94FD0678940E9466
:101770007809F894E091D709F091D809858580FD22
:101780000AC0178216827894F8011082DF91CF91F7
:101790001F910F910895CE010E94320778948AE03C
:1017A000F8018083CACFFC01F8948181882351F528
:1017B000A481B5811C962D913C911D971A968D910F
:1017C0009C911B972817390718F078948EE108959B
:1017D0001696ED91FC911797619371931796FC9370
:1017E000EE9316972F5F3F4F1D963C932E931C97B9
:1017F00014968D919C911597E817F90761F07894EC
:1018000080E00895CF0144E00E94A20678940E94EF
:10181000780980E0089512968D919C911397179600
:101820009C938E931697EBCFEF92FF920F931F939B
:10183000CF93DF938C017A018091D609882309F038
:101840005CC0F894F801A481B5811C968D919C919F
:101850001D97009709F11896ED91FC911997C19188
:10186000D1911996FC93EE93189701971D969C932E
:101870008E931C9714968D919C911597E817F907F4
:1018800099F17894F7011082CE01DF91CF911F91E9
:101890000F91FF90EF900895E091D709F091D8094A
:1018A00085858460858774876387C8010E94FD06EB
:1018B00078940E947809F894E091D709F091D809BA
:1018C000C085D1852097F9F011861086158617827C
:1018D00016827894F7011082CE01DF91CF911F918B
:1018E0000F91FF90EF90089512968D919C91139710
:1018F00019969C938E931897C4CF82E0FA01808347
:10190000C0E0D0E0C1CFC8010E94320778948AE0DD
:10191000F7018083B9CFFC01F8948181882339F4E1
:1019200084819581892B61F0789484E10895CF01B9
:1019300042E00E94A20678940E94780980E008950F
:1019400075836483789480E00895EF92FF920F93FB
:101950001F93CF93DF938C017A018091D60988235E
:10196000A1F5F894F801C481D581209769F015821A
:1019700014827894FA011082CE01DF91CF911F91E9
:101980000F91FF90EF900895E091D709F091D80959
:1019900085858260858774876387C8010E94FD06FC
:1019A00078940E947809F894E091D709F091D809C9
:1019B000C085D185209779F011861086158617820B
:1019C00016827894F7011082D7CF82E0FA018083E3
:1019D000C0E0D0E0D1CFC8010E94320778948AE0FD
:1019E000F7018083C9CFCF92DF92EF92FF920F93DE
:1019F0001F93DF93CF930F92CDB7DEB78C017901A0
:101A0000F894442309F054C06095FC018381862337
:101A10008383F801C180D280C114D10409F458C075
:101A200019820AC08330B1F1F601808191819C0155
:101A3000690121153105D1F0F6018185823091F7D8
:101A4000F6016085F80183818623681769F7C6016E
:101A50000E940308813041F7F1E0F983F6018081AB
:101A600091819C0169012115310531F77894F98143
:101A7000F13059F1F894F80183817894F7011082DC
:101A80000F90CF91DF911F910F91FF90EF90DF901A
:101A9000CF900895F6016085F8018381682309F4E9
:101AA000C3CFC6010E940308813009F0BDCFD4CF57
:101AB000413031F0789489E9F901808380E0E0CF0A
:101AC000FC018381862B8383A4CF0E947809D2CF27
:101AD0001982CCCF8F929F92AF92BF92CF92DF921A
:101AE000FF920F931F93DF93CF93CDB7DEB72B9762
:101AF0000FB6F894DEBF0FBECDBF6C01562FF42E8B
:101B0000F90158018091D609882309F547FD24C0C1
:101B10001B86F89482E0F81639F1A3E0FA16C9F1B1
:101B2000789487E9F501808380E02B960FB6F894CE
:101B3000DEBF0FBECDBFCF91DF911F910F91FF9000
:101B4000DF90CF90BF90AF909F908F90089582E0EC
:101B5000D8018C9380E0E9CFBFE7FB2221E02B87FF
:101B6000F89482E0F816C9F6D60113969C91852F59
:101B70008923851709F5BB85B13031F4852F809510
:101B80008923F6018383982F892F7894D5011C929D
:101B9000CCCFD60113969C91852F892369F1BB8503
:101BA000B13029F480958923F6018383982F892FFA
:101BB0007894D5011C92B9CFC6014E010894811CBE
:101BC000911CB401452F22E08F010E948407789474
:101BD0000E947809F894E091D709F091D809858599
:101BE00085FD17C0BB85B13011F1F6019381892FB6
:101BF0007894D5011C9299CFC6014E010894811C9E
:101C0000911CB401452F23E08F010E948407789432
:101C1000DFCFC4010E94E407E091D709F091D80911
:101C2000158678948AE0D5018C9380E07ECF2EEFE4
:101C3000F20E81E08F1520F4D60113969C91D7CF38
:101C400082858095F601938198239383D0CF8091EC
:101C5000F707813009F00895F8948091F6078823FA
:101C600059F081508093F607882321F48091D6099A
:101C7000882321F0789408957894089578940E94A8
:101C8000780908950E947E068091F707813009F057
:101C90000895A0912608B09127081E968C911E9752
:101CA0008C30B1F32091D00941E050E01AC0529637
:101CB0008C915297282B5096EC915097F0E0EF5270
:101CC000F64F808151969C915197892B8083129673
:101CD0000D90BC91A02D78941E968C911E978C30FF
:101CE000C1F0F8941B968D919C911C97009779F305
:101CF00001971C969C938E931B97892B41F71D96F9
:101D00008C911D9783FFD3CF1C965C934E931B97AA
:101D1000DECF2093D00908958091F70781110895AF
:101D2000E091D009F0E0EF5CFE4FA081EA2FF0E0F7
:101D3000EF52F64FE081F0E0EF5CFE4FAA0FAA0FE2
:101D4000AA0F8081A80FA093FC07A0932508B0E0FC
:101D5000AA0FBB1FA15EBF4E8D919C919093CD09A0
:101D60008093CC099093D8098093D7090E94860F5D
:101D700008958091F707813009F00895F8948091D3
:101D8000D609882339F081508093D609882311F031
:101D9000789408958091F6078823D1F7E091D009CF
:101DA000F0E0EF5CFE4F80818093D509E82FF0E0F2
:101DB000EF52F64FE081F0E0EF5CFE4F982F990F65
:101DC000990F990F8081980F9093FC0780912508B7
:101DD0009817F1F2E92FF0E0EE0FFF1FE15EFF4EE2
:101DE000808191819093CD098093CC098091A8083E
:101DF0009091A908A091AA08B091AB080196A11DE5
:101E0000B11D8093A8089093A908A093AA08B09345
:101E1000AB080E941D10BCCF0E947F061092D6090D
:101E20001092F6071092B3081092F7071092A808C4
:101E30001092A9081092AA081092AB081092F80705
:101E40001092F9071092FA071092FB071092D0092E
:101E50001092D1091092D209109225081092FC0715
:101E60001092CD091092CC091092D8091092D7097E
:101E70001092270810922608EFE1F0E111921192DA
:101E800020E1E933F207D1F78CE59BE0FC01719783
:101E900091838083439620E18C319207B9F71092A9
:101EA0000C1010920B1089E49BE09093B108809382
:101EB000B00829E53AE0F901CF0108961082958330
:101EC0008483FC018BE0E134F807B1F710821582BE
:101ED00014823093D4092093D3090E94D0070E9422
:101EE000BE0880E699E060E070E048E55AE02CE04A
:101EF0000E94150B88E79AE060E070E047EA58E03E
:101F00002BE00E94150B0E94800608950E947C061B
:101F10000091F70703950093F707E091CC09F09142
:101F2000CD09C191CDBFD191DEBF0F910FBF0F91F0
:101F30000BBFFF91EF91DF91CF91BF91AF919F9137
:101F40008F917F916F915F914F913F912F911F9151
:101F50000F91FF90EF90DF90CF90BF90AF909F9048
:101F60008F907F906F905F904F903F902F901F9039
:101F70000F9008950F921F922F923F924F925F926F
:101F80006F927F928F929F92AF92BF92CF92DF9289
:101F9000EF92FF920F931F932F933F934F935F9373
:101FA0006F937F938F939F93AF93BF93CF93DF9361
:101FB000EF93FF930BB70F930FB70F93E091D709F0
:101FC000F091D809CDB7C193DEB7D1930E947C06BA
:101FD0000091FC0700932508E091CC09F091CD0910
:101FE000E093D709F093D809C191CDBFD191DEBF5D
:101FF0000F910FBF0F910BBFFF91EF91DF91CF9129
:10200000BF91AF919F918F917F916F915F914F9110
:102010003F912F911F910F91FF90EF90DF90CF9004
:10202000BF90AF909F908F907F906F905F904F90F8
:102030003F902F901F900F9008950E947C06009172
:10204000FC0700932508E091CC09F091CD09E093BD
:10205000D709F093D809C191CDBFD191DEBF0F91BF
:102060000FBF0F910BBFFF91EF91DF91CF91BF9108
:10207000AF919F918F917F916F915F914F913F9120
:102080002F911F910F91FF90EF90DF90CF90BF9015
:10209000AF909F908F907F906F905F904F903F9008
:1020A0002F901F900F9008950F921F922F923F92A2
:1020B0004F925F926F927F928F929F92AF92BF9258
:1020C000CF92DF92EF92FF920F931F932F933F9344
:1020D0004F935F936F937F938F939F93AF93BF9330
:1020E000CF93DF93EF93FF930BB70F930FB7006876
:1020F0000F930091D60903950093D609013041F45E
:10210000CDB7DEB7E091D709F091D809C193D1934B
:1021100004E602BF78940E94420E00000E94B90EAD
:102120000F910FBF0F910BBFFF91EF91DF91CF91F7
:10213000BF91AF919F918F917F916F915F914F91DF
:102140003F912F911F910F91FF90EF90DF90CF90D3
:10215000BF90AF909F908F907F906F905F904F90C7
:102160003F902F901F900F900895A0E0B0E0EBEB10
:10217000F0E10C948615DC012B01FA019C91923060
:1021800008F439C1EB018881823008F433C19430FE
:1021900069F4843009F02FC111969C9111978981BF
:1021A000981709F428C1A1E3B2E025C1843009F4ED
:1021B00021C18230A9F4923009F01DC19A01AD010C
:1021C00088E0EA010990AE01E90109929E0181507F
:1021D000C1F7E201898111969C918923818308C10D
:1021E000923009F407C112962D903C901397EB01A1
:1021F0008A819B811496AD90BD90CD90DC9017970D
:10220000EC80FD800E811F819101281B390BB901E3
:1022100037FF04C066277727621B730B6032710596
:102220000CF061C0121613066CF537014801062E3A
:1022300004C096948794779467940A94D2F721E027
:1022400030E040E050E004C0220F331F441F551F10
:102250006A95D2F721503040404050402E213F2116
:1022600040235123211531054105510521F021E07D
:1022700030E040E050E079018A01E628F72808299B
:1022800019293CC0232BD1F1260E371E35014601FA
:10229000062E04C096948794779467940A94D2F794
:1022A00021E030E040E050E004C0220F331F441F23
:1022B000551F6A95D2F721503040404050402A21A6
:1022C0003B214C215D21211531054105510521F0AE
:1022D00021E030E040E050E059016A01A628B7282B
:1022E000C828D9280BC0821593052CF01C01AA24FC
:1022F000BB24650103C0EE24FF24870111969C9145
:10230000D20111968C91981709F445C0992339F0A0
:10231000A80197012A193B094C095D0906C0A601CD
:1023200095012E193F09400B510B57FD08C0118232
:102330003382228224833583468357831DC081E004
:1023400081833382228288279927DC01821B930BA9
:10235000A40BB50B84839583A683B7830DC0220F8E
:10236000331F441F551F248335834683578382813F
:10237000938101979383828324813581468157819C
:10238000DA01C9010197A109B1098F5F9F4FAF4FD2
:10239000BF4328F30BC0918333822282EA0CFB1CDB
:1023A0000C1D1D1DE482F5820683178383E0808364
:1023B000248135814681578157FF1AC0C901AA2758
:1023C00097FDA095BA2F81709070A070B07056954F
:1023D000479537952795822B932BA42BB52B848378
:1023E0009583A683B78382819381019693838283A9
:1023F000DF0101C0D201CD01CDB7DEB7E2E10C941F
:10240000A215A0E2B0E0E7E0F2E10C949215698336
:102410007A838B839C832D833E834F835887E9E0A7
:10242000EE2EF12CEC0EFD1ECE010196B7010E949E
:1024300041148E010F5E1F4FCE010596B8010E9418
:1024400041148A8991E089278A8BC701B801AE01BE
:10245000475E5F4F0E94B5100E946C13A096E6E0A5
:102460000C94AE15A0E2B0E0E8E3F2E10C94921512
:1024700069837A838B839C832D833E834F83588724
:10248000F9E0EF2EF12CEC0EFD1ECE010196B70106
:102490000E9441148E010F5E1F4FCE010596B801B8
:1024A0000E944114C701B801AE01475E5F4F0E9410
:1024B000B5100E946C13A096E6E00C94AE15A8E14E
:1024C000B0E0E5E6F2E10C94921569837A838B83A0
:1024D0009C832D833E834F83588789E0E82EF12C1F
:1024E000EC0EFD1ECE010196B7010E9441148E0133
:1024F0000F5E1F4FCE010596B8010E9441148985D9
:10250000823040F08989823028F0C701B8010E94EA
:10251000B91401C08FEF6896E6E00C94AE15A8E1FF
:10252000B0E0E5E9F2E10C94921569837A838B833C
:102530009C832D833E834F83588789E0E82EF12CBE
:10254000EC0EFD1ECE010196B7010E9441148E01D2
:102550000F5E1F4FCE010596B8010E944114898578
:10256000823040F08989823028F0C701B8010E948A
:10257000B91401C081E06896E6E00C94AE15A8E0BD
:10258000B0E0E5ECF2E10C948F159B01AC0183E027
:102590008983DA01C9018827B7FD83959927AA277E
:1025A000BB27B82E211531054105510519F482E0EC
:1025B00089833AC08823A9F0203080E0380780E082
:1025C000480780E8580729F460E070E080E09FEC5D
:1025D00030C0EE24FF248701E21AF30A040B150B26
:1025E00002C079018A018EE1C82ED12CDC82CB8217
:1025F000ED82FE820F831887C801B7010E941D1368
:1026000001971816190684F4082E04C0EE0CFF1C5E
:10261000001F111F0A94D2F7ED82FE820F831887E4
:10262000C81AD90ADC82CB82BA82CE0101960E94F6
:102630006C132896E9E00C94AB15EF92FF920F9380
:102640001F937B018C0180E0E81680E0F80681E0B2
:10265000080780E0180788F48FEFE816F1040105F9
:10266000110531F028F088E090E0A0E0B0E017C05C
:1026700080E090E0A0E0B0E012C080E0E81680E0EA
:10268000F80680E0080781E0180728F088E190E06C
:10269000A0E0B0E004C080E190E0A0E0B0E020E283
:1026A00030E040E050E0281B390B4A0B5B0B04C0C4
:1026B00016950795F794E7948A95D2F7F701E75CAA
:1026C000FD4F8081281B310941095109C9011F9122
:1026D0000F91FF90EF900895DF92EF92FF920F938A
:1026E0001F93FC01E480F58006811781D1808081F1
:1026F000823048F480E090E0A0E1B0E0E82AF92AD6
:102700000A2B1B2BA5C0843009F49FC0823021F412
:10271000EE24FF24870105C0E114F1040105110531
:1027200019F4E0E0F0E096C0628173819FEF6238B7
:1027300079070CF05BC022E83FEF261B370B2A31EC
:1027400031052CF020E030E040E050E02AC0B80134
:10275000A701022E04C076956795579547950A9470
:10276000D2F781E090E0A0E0B0E004C0880F991FAC
:10277000AA1FBB1F2A95D2F70197A109B1098E2183
:102780009F21A023B1230097A105B10521F081E08D
:1027900090E0A0E0B0E09A01AB01282B392B4A2B46
:1027A0005B2BDA01C9018F779070A070B070803414
:1027B0009105A105B10539F427FF09C0205C3F4F01
:1027C0004F4F5F4F04C0215C3F4F4F4F5F4FE0E0E2
:1027D000F0E02030A0E03A07A0E04A07A0E45A0762
:1027E00010F0E1E0F0E079018A0127C0603871055E
:1027F00064F5FB01E158FF4FD801C7018F77907056
:10280000A070B07080349105A105B10539F4E7FEE0
:102810000DC080E490E0A0E0B0E004C08FE390E061
:10282000A0E0B0E0E80EF91E0A1F1B1F17FF05C04D
:1028300016950795F794E794319687E016950795D6
:10284000F794E7948A95D1F705C0EE24FF24870119
:10285000EFEFF0E06E2F679566276795902F9F77D3
:10286000D794DD24D7948E2F8695492F462B582F49
:102870005D29B701CA011F910F91FF90EF90DF9082
:102880000895FC01DB01408151812281622F6F7725
:1028900070E0221F2227221F9381892F880F822B0D
:1028A000282F30E0991F9927991F11969C93119713
:1028B00021153105A9F5411551056105710511F481
:1028C00082E037C082E89FEF13969C938E93129715
:1028D0009A01AB0167E0220F331F441F551F6A9511
:1028E000D1F783E08C930DC0220F331F441F551F77
:1028F00012968D919C911397019713969C938E93AA
:102900001297203080E0380780E0480780E45807BD
:1029100058F314962D933D934D935C931797089518
:102920002F3F310579F4411551056105710519F401
:1029300084E08C93089564FF03C081E08C9312C0FF
:102940001C9210C02F57304013963C932E93129731
:1029500083E08C9387E0440F551F661F771F8A958D
:10296000D1F7706414964D935D936D937C93179794
:1029700008951F93DC01FB019C91923008F447C03D
:102980008081823008F443C0943051F411961C9138
:10299000843099F58181682F70E0611B71093FC017
:1029A000843021F0923031F48230B9F18181882372
:1029B00089F12DC011961C9111978230F1F081811F
:1029C0001817D9F412962D913C9113978281938117
:1029D0008217930794F028173907BCF014968D914D
:1029E0009D910D90BC91A02D248135814681578108
:1029F000281739074A075B0718F4112341F00AC06A
:102A000082179307A407B50740F4112319F061E07A
:102A100070E005C06FEF7FEF02C060E070E0CB01B7
:102A20001F910895629FD001739FF001829FE00D76
:102A3000F11D649FE00DF11D929FF00D839FF00D3D
:102A4000749FF00D659FF00D9927729FB00DE11DE9
:102A5000F91F639FB00DE11DF91FBD01CF011124C6
:102A60000895991B79E004C0991F961708F0961BEA
:102A7000881F7A95C9F78095089597FB092E072638
:102A80000AD077FD04D02ED006D000201AF470951D
:102A900061957F4F0895F6F7909581959F4F089522
:102AA000A1E21A2EAA1BBB1BFD010DC0AA1FBB1F52
:102AB000EE1FFF1FA217B307E407F50720F0A21BC4
:102AC000B30BE40BF50B661F771F881F991F1A9431
:102AD00069F760957095809590959B01AC01BD015B
:102AE000CF010895AA1BBB1B51E107C0AA1FBB1F42
:102AF000A617B70710F0A61BB70B881F991F5A958A
:102B0000A9F780959095BC01CD0108952F923F9231
:102B10004F925F926F927F928F929F92AF92BF92ED
:102B2000CF92DF92EF92FF920F931F93CF93DF9399
:102B3000CDB7DEB7CA1BDB0B0FB6F894DEBF0FBEF6
:102B4000CDBF09942A88398848885F846E847D8443
:102B50008C849B84AA84B984C884DF80EE80FD8045
:102B60000C811B81AA81B981CE0FD11D0FB6F894BB
:0E2B7000DEBF0FBECDBFED010895F894FFCF7C
:102B7E00FFFF01030F3F7F01020408102040802B4E
:102B8E00723F065B4F666D7C077F6740003F065BBA
:102B9E004F666D7C077F67400001020408102040DD
:102BAE00800000010002000100030001000200018C
:102BBE0000040001000200010003000100020001F8
:102BCE0000050001000200010003000100020001E7
:102BDE0000040001000200010003000100020001D8
:102BEE0000060001000200010003000100020001C6
:102BFE0000040001000200010003000100020001B8
:102C0E0000050001000200010003000100020001A6
:102C1E000004000100020001000300010002000197
:102C2E000007000100020001000300010002000184
:102C3E000004000100020001000300010002000177
:102C4E000005000100020001000300010002000166
:102C5E000004000100020001000300010002000157
:102C6E000006000100020001000300010002000145
:102C7E000004000100020001000300010002000137
:102C8E000005000100020001000300010002000126
:102C9E000004000100020001000300010002000117
:102CAE000000000000000000000001020203030308
:102CBE0003040404040404040405050505050505C0
:102CCE00050505050505050505060606060606069F
:102CDE000606060606060606060606060606060686
:102CEE00060606060606060606070707070707076F
:102CFE000707070707070707070707070707070756
:102D0E000707070707070707070707070707070745
:102D1E000707070707070707070707070707070735
:102D2E00070707070707070707080808080808081E
:102D3E000808080808080808080808080808080805
:102D4E0008080808080808080808080808080808F5
:102D5E0008080808080808080808080808080808E5
:102D6E0008080808080808080808080808080808D5
:102D7E0008080808080808080808080808080808C5
:102D8E0008080808080808080808080808080808B5
:102D9E0008080808080808080808080808080808A5
:0A2DAE0008080808080808080800D3
:00000001FF
