:100000000C9446000C9465000C9465000C946500FB
:100010000C9465000C9465000C9465000C946500CC
:100020000C9465000C9465000C9465000C946500BC
:100030000C9465000C9465000C9465000C946500AC
:100040000C94D10B0C9465000C9465000C94650025
:100050000C9465000C9465000C9465000C9465008C
:100060000C9465000C9465000C9465000C9465007C
:100070000C9465000C9465000C9465000C9465006C
:100080000C9465000C9465000C94650011241FBE4F
:10009000CFEFD0E1DEBFCDBF12E0A0E0B1E0E2E003
:1000A000F9E100E00BBF02C007900D92AC31B1073F
:1000B000D9F71BE0ACE1B2E001C01D92A83EB10748
:1000C000E1F70E94CB010C947F0C0C94000084EAB1
:1000D000809374008091740087FFFCCF89E980933E
:1000E000730084E8809374008091740087FFFCCFD4
:1000F00084EC809374008091740087FFFCCF909112
:10010000730084E8809374008091740087FFFCCFB3
:1001100080917300392F20E090E0282B392B84E95F
:1001200080937400232F330F330B213231052CF4CD
:1001300087B78F7B87BFC901089587B7806487BF62
:10014000C9010895982F84EA809374008091740007
:1001500087FFFCCF80917100887F883029F08091E3
:100160007100887F803191F788E98093730084E87B
:10017000809374008091740087FFFCCF80917100A0
:10018000887F8831B9F79093730084E88093740076
:100190008091740087FFFCCF80917100887F883246
:1001A000B9F76093730084E88093740080917400C1
:1001B00087FFFCCF80917100887F8832B9F784E98E
:1001C000809374000895982F84EA8093740080913E
:1001D000740087FFFCCF80917100887F883029F000
:1001E00080917100887F803191F788E98093730056
:1001F00084E8809374008091740087FFFCCF809125
:100200007100887F8831B9F79093730084E88093F8
:1002100074008091740087FFFCCF80917100887F0B
:100220008832B9F784E980937400089583E082BB33
:1002300080B58B7F80BD1092710080E2809370004A
:1002400084E48093740008958F929F92AF92BF923E
:10025000CF92DF92EF92FF920F931F93DF93CF9392
:10026000CDB7DEB764970FB6F894DEBF0FBECDBF33
:1002700032E0E32EF12CEC0EFD1ED701E0E0F1E0C0
:1002800083E101900D928150E1F78FEF84BB8FE005
:10029000809364005E010894A11CB11C882483949F
:1002A00020E4C22E2FE1D22E92E0992E80911D02E1
:1002B00090911E026FE042E820E030E085010E944C
:1002C000E70820911C02822F6AE00E94510CF7017E
:1002D000E90FF11D808185BB80926500C601019701
:1002E000F1F7822F0E94510CF701E80FF11D808178
:1002F00085BB90926500C6010197F1F7D7CF0F93A8
:100300001F93DF93CF930F92CDB7DEB78E010F5FB0
:100310001F4FF89480911F029091200260E070E0DE
:10032000A8010E942208FC01808180931C02809118
:100330001D0290911E026FE041E098010E9470083A
:10034000789482E390E00E947D05E3CF0F931F93A2
:10035000DF93CF9300D0CDB7DEB70E94160181E0C6
:1003600060E00E94A20080E00E94E3008E010F5F27
:100370001F4FF8940E9467009A8389837894809134
:100380001F0290912002B8010E94080882E390E0C9
:100390000E947D05EECFDF93CF930F92CDB7DEB7EE
:1003A0000E94890AF89487E083BF81E087BF84E6D2
:1003B00082BF789480E090E00E94FC03909320023A
:1003C00080931F0280E0BE016F5F7F4F0E941C037D
:1003D00090931E0280931D0286EA91E060E070E037
:1003E00040EA52E020E00E94D3068FE791E060E00F
:1003F00070E040E253E021E00E94D30684E291E005
:1004000060E070E040EA53E022E00E94D3060E94E0
:10041000090A80E090E00F90CF91DF910895FA01F2
:1004200080839293129212921292129212921292CC
:10043000129212921292129212921292129212929C
:10044000129212921292129212921292129212928C
:1004500012921292629372931292129212921292CA
:1004600012921292129280E882933197CF010895EE
:100470000895089508950895089508950895089594
:1004800008958091A203813009F00895809181053B
:100490008F3FD9F38F5F8093810508958091A203E8
:1004A000813009F00895F8948091A1038F3F19F0ED
:1004B0008F5F8093A103789408958CEF90E0089566
:1004C000FF920F931F93CF93DF93EC018B01F42ED8
:1004D0003981E32FF0E0E55EFE4F2081422F50E0AE
:1004E000FA01ED5EFE4F7081DC01A40FB51F169678
:1004F0009C911697E92FF0E0E55EFE4F8081E82F92
:10050000F0E0ED5EFE4F6081220F220F220F280FD8
:10051000862F8095892316968C93882321F4872F24
:10052000809538233983E22FF0E0EE0FFF1FE6536A
:10053000F44F0190F081E02D148613861782168205
:10054000118700878F2D809595858923858788233E
:1005500059F480917B05872B80937B05FA01E45841
:10056000FA4F8081682B6083822FDF91CF911F919A
:100570000F91FF900895CF93DF93EC01A091820536
:10058000B091830517969C938E93169750968C91F5
:100590005097482F50E051963C915197FA01E458FA
:1005A000FA4F832F80959081892380838823A9F433
:1005B00052962C91922F909580917B058923809360
:1005C0007B05FE01E40FF51F8681832B86838981DD
:1005D000822B8983DF91CF91089552962C91F1CF90
:1005E000CF93DF93EC01A0918205B09183055096E3
:1005F0008C915097FE01E80FF11D51968C91519707
:100600008095968189238683882339F452969C911C
:10061000529790958981892389831D961C921D97F5
:1006200017961C921E921697DF91CF910895FC01A8
:100630001182168217820895282FDB01809181058F
:100640008823D9F4F894E091C70BF091C80B309748
:1006500079F0818192819093C80B8093C70B85E0DC
:10066000808323831282118278941C92CF01089593
:1006700078948AE98C93CF0108958DE88C93E0E01B
:10068000F0E0F4CFEF92FF920F931F93CF93DF939D
:100690007C01FB01A0918205B09183051D968C9190
:1006A0001D9780621D968C931D971C961C930E932C
:1006B0001B9740872187B583A483E70189819A81AD
:1006C0009183808313821282F782E68289819A81E4
:1006D000009719F0EC017B836A83E701FA83E983D1
:1006E0005096EC915097F0E0E458FA4F51968C9167
:1006F00051978095908189238083882341F4529675
:100700009C91909580917B05892380937B05DF9157
:10071000CF911F910F91FF90EF90089528EA33E059
:10072000F901CF010496108292838183FC0183E05A
:10073000EC3CF807B1F7128211823093C80B20937A
:10074000C70B0895CF93DF93FC01A281B381C081D1
:10075000D181109751F01196DC93CE93209711F030
:10076000BB83AA83DF91CF9108950680F781E02DA6
:10077000D283C1832097B1F31B821A82DF91CF917C
:1007800008951F93CF93DF93EC01AC81BD811C963C
:100790001C921E921B971A966C931A971D968C9119
:1007A0001D978F7D1D968C931D978823E1F4809172
:1007B0007B0552969C915297892B80937B0550968E
:1007C000EC915097F0E0E458FA4F808151969C915B
:1007D000892B808311E0CE010E94A203812FDF913B
:1007E000CF911F91089510E0CE010E94A203812FA6
:1007F000DF91CF911F9108959C01809181058823FD
:10080000D9F4F894E0917E05F0917F05309731F0AE
:100810008481958190937F0580937E0578943097AD
:1008200049F081E080831382128235832483118210
:1008300016821782CF010895E0E0F0E0CF0108951D
:100840009C0180918105882309F052C0F894E091C1
:100850007E05F0917F05309731F0848195819093EA
:100860007F0580937E0578943097A9F1F894A09144
:100870007905B0917A05109781F18D919C9111972E
:1008800090937A0580937905789413963C932E93F0
:100890001297CB01880F991F820F931F15969C9377
:1008A0008E93149717963C932E93169719963C9314
:1008B0002E9318971B967C936E931A971D961C92F5
:1008C0001E921C9782E0808313821282B583A483D8
:1008D000118216821782CF01089580917E05909132
:1008E0007F0595838483F0937F05E0937E0578945C
:1008F000E0E0F0E0CF0108958DE694E0FC013E9742
:10090000918380830E9625E087379207B9F710927E
:100910006A05109269058FE594E090937A058093BB
:10092000790508959C01809181058823D9F4F89474
:10093000E0917E05F0917F05309731F084819581BB
:1009400090937F0580937E057894309749F083E0FB
:100950008083338322831582148211821682178248
:10096000CF010895E0E0F0E0CF0108951F93CF9309
:10097000DF93182FF894C0915B04D0915C0420970A
:1009800009F456C08A819B8190935C0480935B0438
:100990007894798368831E871D861C861B86E12FC9
:1009A000E695E695E695E88BF0E0ED5EFE4F8081FA
:1009B0008A8BE12FE770EF87F0E0ED5EFE4F8081DC
:1009C000898B1F821E8219861886CE010E944002E2
:1009D000CE010E943802F894E12FF0E0EE0FFF1FE5
:1009E000E653F44FD183C083E091D103F091D20359
:1009F000FB83EA831D821C82309711F0D583C48368
:100A0000D093D203C093D10380917B059A89892B1F
:100A100080937B05E889F0E0E458FA4F808199895A
:100A2000892B8083789480E0DF91CF911F91089586
:100A3000789486E4DF91CF911F910895F894809186
:100A4000A3039091A403A091A503B091A6030196DE
:100A5000A11DB11D8093A3039093A403A093A503AC
:100A6000B093A60378940E943F02E8CFF894809157
:100A70008105882309F03FC08091A1038823D9F51F
:100A8000E0917B05F0E0E55EFE4F8081E82FF0E02D
:100A9000E458FA4FE081F0E0E55EFE4F982F990FA1
:100AA000990F990F8081980F9093A7038091D0039D
:100AB000981709F1E92FF0E0EE0FFF1FE653F44F0E
:100AC000808191819093780580937705809153047C
:100AD00090915404A0915504B09156040196A11D23
:100AE000B11D8093530490935404A0935504B09384
:100AF00056040E94370B789408959C01009721F1C9
:100B0000F894A0918205B09183055096EC9150978E
:100B1000F0E0E458FA4F51968C915197809590816E
:100B200089238083882349F452969C91529790950B
:100B300080917B05892380937B051C963C932E93A3
:100B40001B9778940E94360508958F929F92AF92DA
:100B5000BF92CF92DF92EF92FF920F931F93CF93AA
:100B6000DF93882E162F942E8823C9F01C3300F5AE
:100B70008BE3891590F093E0283E3907D8F083E5A0
:100B8000DF91CF911F910F91FF90EF90DF90CF9069
:100B9000BF90AF909F908F90089582E5F1CF66232C
:100BA00029F7442329F72115310529F784E5E8CFF2
:100BB00081E5E6CFB90180E090E024E630E040E056
:100BC00050E00E94320C6C507E4F8F4F9F4F28EEAA
:100BD00033E040E050E00E945D0C59016A01612F52
:100BE00070E080E090E02CE330E040E050E00E94D4
:100BF000320C7B018C01E90CF11C011D111D682DCB
:100C000070E080E090E020E13EE040E050E00E94B3
:100C1000320CE60EF71E081F191FC801B70124E6A3
:100C200030E040E050E00E94320CA60EB71EC81E15
:100C3000D91E760100271127E7018FEF9FEFA0E073
:100C4000B0E0A822B922CA22DB22C5010E947D059C
:100C5000EF2851F080E090E80E947D0580E090E868
:100C60000E947D052197B1F780E08ACFDF92EF9255
:100C7000FF920F931F938091C90B882341F488EC56
:100C800090E00E947D058091C90B8823C1F360919B
:100C90005704709158048091590490915A0424E6A5
:100CA00030E040E050E00E945D0CC901DA017C01B7
:100CB0008D01E4E6DE2E10C0A80197010E945D0CB4
:100CC0008D2D821B87FD44C080935D040E943B02F2
:100CD00084E690E00E947D05F8948091A3039091B2
:100CE000A403A091A503B091A6038093E40B909375
:100CF000E50BA093E60BB093E70B6091A303709113
:100D0000A4038091A5039091A6031092A3031092CF
:100D1000A4031092A5031092A6037894E114F104A1
:100D20000105110549F610925D0460915704709118
:100D300058048091590490915A0424E630E040E030
:100D400050E00E945D0CC901DA017C018D01BECF2B
:100D500010925D04BBCF82E090E00E947D05F89484
:100D60001092A3031092A4031092A5031092A6035D
:100D7000789484E690E00E947D05F8948091A30326
:100D80009091A403A091A503B091A603809357046A
:100D900090935804A0935904B0935A0481E080932F
:100DA000C90B78940895AF92BF92CF92DF92EF92E1
:100DB000FF920F931F93CF93DF93FC01122FF894B0
:100DC000C22FD0E0CC0FDD1FC653D44F888199814C
:100DD000892B71F0789418E2812FDF91CF911F91C8
:100DE0000F91FF90EF90DF90CF90BF90AF9008955C
:100DF00081E090E0998388837894CF0120E030E00F
:100E00000E940F02BC01812F40E050E020E030E062
:100E1000EE24FF248701CC24DD24AA24BB240E94D5
:100E2000B604182F882371F4F89480915E048F5FC4
:100E300080935E0478948091A203813069F60E94C9
:100E40003605CACFF894198218827894C5CFFC0170
:100E5000F8948181882379F4828193812FEF8F3FE9
:100E6000920731F0019693838283789480E008950D
:100E7000789482E30895CF0160E070E041E00E9441
:100E8000600278940E94360580E008950F931F93C6
:100E9000CF93DF93EC018A0180918105882381F44F
:100EA000F8948A819B81009799F001979B838A83AC
:100EB0007894FA011082DF91CF911F910F910895DC
:100EC00082E0FA018083DF91CF911F910F91089505
:100ED000E0918205F091830585858160858774871F
:100EE0006387CE010E94BB0278940E943605F89475
:100EF000E0918205F0918305858580FD0AC0178207
:100F000016827894F8011082DF91CF911F910F9192
:100F10000895CE010E94F00278948AE0F80180835F
:100F2000CACFEF92FF920F931F93CF93DF938C0161
:100F30007A0180918105882309F05CC0F894F8015A
:100F4000A481B5811C968D919C911D97009709F104
:100F50001896ED91FC911997C191D1911996FC9336
:100F6000EE93189701971D969C938E931C97149659
:100F70008D919C911597E817F90799F17894F701ED
:100F80001082CE01DF91CF911F910F91FF90EF90D2
:100F90000895E0918205F0918305858584608587B9
:100FA00074876387C8010E94BB0278940E9436054B
:100FB000F894E0918205F0918305C085D185209752
:100FC000F9F0118610861586178216827894F7013B
:100FD0001082CE01DF91CF911F910F91FF90EF9082
:100FE000089512968D919C91139719969C938E93C8
:100FF0001897C4CF82E0FA018083C0E0D0E0C1CF6F
:10100000C8010E94F00278948AE0F7018083B9CF8A
:10101000FC01F8948181882339F484819581892B9E
:1010200061F0789484E10895CF0142E00E9460026B
:1010300078940E94360580E00895758364837894DF
:1010400080E00895EF92FF920F931F93CF93DF9369
:101050008C017A01809181058823A1F5F894F8012B
:10106000C481D581209769F0158214827894FA01A1
:101070001082CE01DF91CF911F910F91FF90EF90E1
:101080000895E0918205F0918305858582608587CA
:1010900074876387C8010E94BB0278940E9436055A
:1010A000F894E0918205F0918305C085D185209761
:1010B00079F0118610861586178216827894F701CA
:1010C0001082D7CF82E0FA018083C0E0D0E0D1CF98
:1010D000C8010E94F00278948AE0F7018083C9CFAA
:1010E000CF92DF92EF92FF920F931F93DF93CF93F4
:1010F0000F92CDB7DEB78C017901F894442309F043
:1011000054C06095FC01838186238383F801C180EC
:10111000D280C114D10409F458C019820AC08330A6
:10112000B1F1F601808191819C01690121153105A0
:10113000D1F0F6018185823091F7F6016085F801E2
:1011400083818623681769F7C6010E94C103813035
:1011500041F7F1E0F983F601808191819C016901F9
:101160002115310531F77894F981F13059F1F8946E
:10117000F80183817894F70110820F90CF91DF916D
:101180001F910F91FF90EF90DF90CF900895F6019F
:101190006085F8018381682309F4C3CFC6010E94EA
:1011A000C103813009F0BDCFD4CF413031F0789404
:1011B00089E9F901808380E0E0CFFC018381862BFF
:1011C0008383A4CF0E943605D2CF1982CCCF8F92D1
:1011D0009F92AF92BF92CF92DF92FF920F931F9395
:1011E000DF93CF93CDB7DEB72B970FB6F894DEBF62
:1011F0000FBECDBF6C01562FF42EF901580180911E
:101200008105882309F547FD24C01B86F89482E0F8
:10121000F81639F1A3E0FA16C9F1789487E9F501D7
:10122000808380E02B960FB6F894DEBF0FBECDBF53
:10123000CF91DF911F910F91FF90DF90CF90BF90E2
:10124000AF909F908F90089582E0D8018C9380E0BA
:10125000E9CFBFE7FB2221E02B87F89482E0F81664
:10126000C9F6D60113969C91852F8923851709F518
:10127000BB85B13031F4852F80958923F6018383B6
:10128000982F892F7894D5011C92CCCFD601139634
:101290009C91852F892369F1BB85B13029F4809514
:1012A0008923F6018383982F892F7894D5011C9286
:1012B000B9CFC6014E010894811C911CB401452F81
:1012C00022E08F010E94420378940E943605F89430
:1012D000E0918205F0918305858585FD17C0BB856A
:1012E000B13011F1F6019381892F7894D5011C92C8
:1012F00099CFC6014E010894811C911CB401452F61
:1013000023E08F010E9442037894DFCFC4010E9442
:10131000A203E0918205F0918305158678948AE016
:10132000D5018C9380E07ECF2EEFF20E81E08F15F9
:1013300020F4D60113969C91D7CF82858095F60133
:10134000938198239383D0CF8091A203813009F0B9
:101350000895F8948091A103882359F081508093D7
:10136000A103882321F480918105882321F07894BA
:1013700008957894089578940E94360508950E94FF
:101380003C028091A203813009F00895A091D1031D
:10139000B091D2031E968C911E978C30B1F32091A0
:1013A0007B0541E050E01AC052968C915297282B51
:1013B0005096EC915097F0E0E458FA4F80815196A6
:1013C0009C915197892B808312960D90BC91A02DF2
:1013D00078941E968C911E978C30C1F0F8941B96D1
:1013E0008D919C911C97009779F301971C969C9383
:1013F0008E931B97892B41F71D968C911D9783FF28
:10140000D3CF1C965C934E931B97DECF20937B0526
:1014100008958091A20381110895E0917B05F0E089
:10142000E55EFE4FA081EA2FF0E0E458FA4FE0813C
:10143000F0E0E55EFE4FAA0FAA0FAA0F8081A80F69
:10144000A093A703A093D003B0E0AA0FBB1FA6539D
:10145000B44F8D919C9190937805809377059093EC
:101460008305809382050E94030B08958091A20357
:10147000813009F00895F89480918105882339F02E
:10148000815080938105882311F07894089580918C
:10149000A1038823D1F7E0917B05F0E0E55EFE4FE4
:1014A000808180938005E82FF0E0E458FA4FE081D6
:1014B000F0E0E55EFE4F982F990F990F990F80810C
:1014C000980F9093A7038091D0039817F1F2E92F1A
:1014D000F0E0EE0FFF1FE653F44F8081918190936F
:1014E0007805809377058091530490915404A091DE
:1014F0005504B09156040196A11DB11D809353046B
:1015000090935404A0935504B09356040E949A0BF0
:10151000BCCF0E943D02109281051092A10310924F
:101520005E041092A203109253041092540410927D
:101530005504109256041092A3031092A403109223
:10154000A5031092A60310927B0510927C051092C1
:101550007D051092D0031092A70310927805109287
:10156000770510928305109282051092D203109293
:10157000D103EAECFBE0119211922BE0E43EF2077A
:10158000D1F787E097E0FC017197918380834396C0
:101590002BE0873C9207B9F71092B70B1092B60B6D
:1015A00084EF96E090935C0480935B0424E036E043
:1015B000F901CF010896108295838483FC0186E0AF
:1015C000EC3EF807B1F710821582148230937F0544
:1015D00020937E050E948E030E947C048EE195E09C
:1015E00060E070E043E056E02CE00E94D30686E322
:1015F00096E060E070E042E554E02BE00E94D30604
:101600000E943E0208950E943A020091A2030395AF
:101610000093A203E0917705F0917805C191CDBFC9
:10162000D191DEBF0F910FBF0F910BBFFF91EF91D3
:10163000DF91CF91BF91AF919F918F917F916F91EA
:101640005F914F913F912F911F910F91FF90EF90DC
:10165000DF90CF90BF90AF909F908F907F906F90D2
:101660005F904F903F902F901F900F9008950F9292
:101670001F922F923F924F925F926F927F928F9222
:101680009F92AF92BF92CF92DF92EF92FF920F9311
:101690001F932F933F934F935F936F937F938F93FA
:1016A0009F93AF93BF93CF93DF93EF93FF930BB7CA
:1016B0000F930FB70F93E0918205F0918305CDB79B
:1016C000C193DEB7D1930E943A020091A703009321
:1016D000D003E0917705F0917805E0938205F093CF
:1016E0008305C191CDBFD191DEBF0F910FBF0F9187
:1016F0000BBFFF91EF91DF91CF91BF91AF919F9180
:101700008F917F916F915F914F913F912F911F9199
:101710000F91FF90EF90DF90CF90BF90AF909F9090
:101720008F907F906F905F904F903F902F901F9081
:101730000F9008950E943A020091A7030093D003EE
:10174000E0917705F0917805E0938205F0938305A9
:10175000C191CDBFD191DEBF0F910FBF0F910BBFD4
:10176000FF91EF91DF91CF91BF91AF919F918F91B9
:101770007F916F915F914F913F912F911F910F91A9
:10178000FF90EF90DF90CF90BF90AF909F908F90A1
:101790007F906F905F904F903F902F901F900F9091
:1017A00008950F921F922F923F924F925F926F92E5
:1017B0007F928F929F92AF92BF92CF92DF92EF92E1
:1017C000FF920F931F932F933F934F935F936F93CA
:1017D0007F938F939F93AF93BF93CF93DF93EF93B9
:1017E000FF930BB70F930FB700680F93009181051C
:1017F000039500938105013041F4CDB7DEB7E09148
:101800008205F0918305C193D19304E602BF7894D9
:101810000E94BF0900000E94360A0F910FBF0F916E
:101820000BBFFF91EF91DF91CF91BF91AF919F914E
:101830008F917F916F915F914F913F912F911F9168
:101840000F91FF90EF90DF90CF90BF90AF909F905F
:101850008F907F906F905F904F903F902F901F9050
:101860000F900895629FD001739FF001829FE00D59
:10187000F11D649FE00DF11D929FF00D839FF00D0F
:10188000749FF00D659FF00D9927729FB00DE11DBB
:10189000F91F639FB00DE11DF91FBD01CF01112498
:1018A0000895991B79E004C0991F961708F0961BBC
:1018B000881F7A95C9F780950895A1E21A2EAA1B70
:1018C000BB1BFD010DC0AA1FBB1FEE1FFF1FA217F0
:1018D000B307E407F50720F0A21BB30BE40BF50BED
:1018E000661F771F881F991F1A9469F76095709576
:1018F000809590959B01AC01BD01CF010895F894AE
:02190000FFCF17
:101902003F065B4F666D7D277F6F777C395E79710D
:1019120080400801020408102040800000010002FB
:1019220000010003000100020001000400010002A6
:101932000001000300010002000100050001000295
:101942000001000300010002000100040001000286
:101952000001000300010002000100060001000274
:101962000001000300010002000100040001000266
:101972000001000300010002000100050001000255
:101982000001000300010002000100040001000246
:101992000001000300010002000100070001000233
:1019A2000001000300010002000100040001000226
:1019B2000001000300010002000100050001000215
:1019C2000001000300010002000100040001000206
:1019D20000010003000100020001000600010002F4
:1019E20000010003000100020001000400010002E6
:1019F20000010003000100020001000500010002D5
:101A020000010003000100020001000400010002C5
:0C1A1200000100030001000200010000C0
:00000001FF
