:100000000C9446000C9465000C9465000C946500FB
:100010000C9465000C9445030C9410030C9465003B
:100020000C9465000C9465000C94ED010C94650033
:100030000C9465000C9465000C9465000C946500AC
:100040000C94AE0E0C9465000C9465000C94650045
:100050000C9465000C9465000C9465000C9465008C
:100060000C9465000C9465000C9465000C9465007C
:100070000C9465000C9465000C9465000C9465006C
:100080000C9465000C9465000C94650011241FBE4F
:10009000CFEFD0E1DEBFCDBF13E0A0E0B1E0E2E3FF
:1000A000F8E200E00BBF02C007900D92A632B10744
:1000B000D9F71EE0A6E2B3E001C01D92A130B1075E
:1000C000E1F70E9489040C9417140C9400008FEF40
:1000D00084BB8FE08093640083E082BB80B58B7F1C
:1000E00080BD1092710080E28093700084E4809360
:1000F00074000895982F84EA8093740080917400AE
:1001000087FFFCCF80917100887F883029F0809133
:100110007100887F803191F788E98093730084E8CB
:10012000809374008091740087FFFCCF80917100F0
:10013000887F8831B9F79093730084E880937400C6
:100140008091740087FFFCCF80917100887F883296
:10015000B9F76093730084E8809374008091740011
:1001600087FFFCCF80917100887F8832B9F784E9DE
:10017000809374000895982F84EA8093740080918E
:10018000740087FFFCCF80917100887F883029F050
:1001900080917100887F803191F788E980937300A6
:1001A00084E8809374008091740087FFFCCF809175
:1001B0007100887F8831B9F79093730084E8809349
:1001C00074008091740087FFFCCF80917100887F5C
:1001D0008832B9F784E980937400089584EA8093A3
:1001E00074008091740087FFFCCF80917100887F3C
:1001F000883029F080917100887F803191F789E9FA
:100200008093730084E8809374008091740087FF6A
:10021000FCCF80917100887F8034B9F784EC8093A3
:1002200074008091740087FFFCCF80917100887FFB
:100230008035B9F73091730084EC8093740080911D
:10024000740087FFFCCF80917100887F8035B9F7FB
:100250002091730084E980937400932F80E030E054
:10026000282B392BC90108956F927F928F929F920C
:10027000AF92BF92CF92DF92EF92FF920F931F93B4
:10028000DF93CF93CDB7DEB764970FB6F894DEBF98
:100290000FBECDBFAC0165E0E62EF12CEC0EFD1ECD
:1002A000D701E9E0F1E08CE001900D928150E1F797
:1002B00081E0898382E08A8384E08B8388E08C8379
:1002C000CC24C394A0E0B0E030E4A32E3FE1B32EF1
:1002D00021E1622E712C6C0E7D1E4E010894811C52
:1002E000911C57FD5BC09BE0D92ECA0180709F779F
:1002F000292F47FD4FC000E0E0E0F0E0822F6AE0E8
:100300000E948B130E948B13192F822F0E948B1334
:10031000EE0DFF1D808185BBC092650020E030E0BE
:10032000F5013197F1F72F5F3F4F24303105C4F4C9
:10033000098B9A8B1B8BDC8AF301E20FF31F808100
:10034000F701E80FF11D808185BBF401E20FF31F77
:100350008081809365002130310511F7AF9AE0CF9D
:100360001196A436B10509F0BCCF64960FB6F89487
:10037000DEBF0FBECDBFCF91DF911F910F91FF90D8
:10038000EF90DF90CF90BF90AF909F908F907F9035
:100390006F90089505E0E5E0F0E0B0CF8AE0D82E58
:1003A0004095509541505040A0CF17B887E886B986
:1003B0000895369A349BFECF24B145B1942F80E046
:1003C00030E0282B392BC9010895883C910510F0A5
:1003D0001BBA08958FEF8BBB08951F920F920FB633
:1003E0000F920BB60F9211248F939F93EF93FF936D
:1003F00080912A0390912B030197D9F080E188BB6B
:1004000081E090E090932B0380932A03E0912803EE
:10041000F0912903E95FFE4F808184BDFF91EF9148
:100420009F918F910F900BBE0F900FBE0F901F905A
:10043000189518BA10922B0310922A03E7CFEF9267
:10044000FF920F931F939C0197FD43C08BE0809315
:100450003703A9019A0120703F773093B905409383
:100460003803832F6AE00E948B130E948B13E92FBD
:1004700090933603832F0E948B139093350347FD8F
:1004800031C080E00F2EFAE9EF2EF9E9FF2EF9E9ED
:100490000F2FF0EC1F2FF02D80933403692F70E0A5
:1004A000605172402AE0E29F90011124620F731F95
:1004B000882777FD8095982F0E9419119B01AC0128
:1004C000C801B7010E948C101F910F91FF90EF900F
:1004D00008958AE080933703A901409550954150D3
:1004E0005040B8CF85E00F2EFAE9EF2EF9E9FF2E44
:1004F000F9E80F2FF0EC1F2FF02DCECFAF92BF9267
:10050000CF92DF92EF92FF920F931F93DF93CF93DF
:100510000F92CDB7DEB78FEF8ABB87BB83E085BD77
:100520008FEC82B98AE08ABF80E389BFE09128031B
:10053000F0912903E95FFE4F808184BD78945E01CC
:100540000894A11CB11CE0E4DE2E70E9E72E71E0F6
:10055000F72ECC24C39480913203909133036FEF34
:1005600042E820E030E085010E94C40B40E0809129
:10057000260390912703019709F58BB380958BBBD8
:10058000D7BE24EF31E0C7010197F1F72150304089
:10059000D1F78091280390912903019662E070E0E1
:1005A0000E94971390932903809328034F5F483C40
:1005B000F1F681E090E00E945A08CDCFC7BEF9CF96
:1005C000DF92EF92FF920F931F93DF93CF930F92DF
:1005D000CDB7DEB78FEF8ABB84BB8FE0809364001A
:1005E00017B887E886B97E010894E11CF11CDD2468
:1005F000DA9405C0DBBA81E090E00E945A0880914D
:100600002E0390912F0362E042E820E030E0870162
:100610000E94C40B0E94D901883C60F31BBAEBCF47
:100620001F920F920FB60F920BB60F9211242F93B9
:100630003F934F935F936F937F938F939F93AF936A
:10064000BF93EF93FF93109227031092260318BADB
:1006500010922B0310922A0381E087BF81E090E083
:100660000E945A08FF91EF91BF91AF919F918F9196
:100670007F916F915F914F913F912F910F900BBEA2
:100680000F900FBE0F901F9018951F920F920FB6EC
:100690000F920BB60F9211242F933F934F935F93BA
:1006A0006F937F938F939F93AF93BF93EF93FF933A
:1006B00081E090E090932703809326030E945A08DC
:1006C000FF91EF91BF91AF919F918F917F916F912A
:1006D0005F914F913F912F910F900BBE0F900FBEE6
:1006E0000F901F9018950F931F93DF93CF930F9246
:1006F000CDB7DEB78FEF8ABB8E010F5F1F4F04C0EF
:1007000081E090E00E945A088091000190910101DF
:1007100097FDF6CF8091260390912703019781F7EB
:10072000809130039091310360E070E0A8010E9455
:10073000FF0AFC010190F081E02D8FEFEF3FF807F9
:1007400029F0EE5FFE4F80818BBBDACF1BBAD8CF8A
:10075000EF92FF920F931F93DF93CF930F92CDB73A
:10076000DEB78FEF84BB8FE0809364008FEC82B99B
:100770008AE08ABF80E389BF8FB780688FBF8E0110
:100780000F5F1F4FEE24EA94FE2C04C081E090E03E
:100790000E945A0880912603909127030197A1F0A7
:1007A0008091260390912703892B81F7F092010114
:1007B000E092000180912E0390912F0362E041E0CE
:1007C00098010E944D0BE2CF80912E0390912F0350
:1007D00061E041E098010E944D0BE2CF6F927F9261
:1007E0008F929F92AF92BF92CF92DF92EF92FF9241
:1007F0000F931F93DF93CF930F92CDB7DEB78FEF99
:100800008ABB0E94670081E060E00E947A0080E07D
:100810000E94BB003E010894611C711C80912E0354
:1008200090912F0361E042E820E030E083010E94D4
:10083000C40B0E94EE004C010E9434018091000123
:10084000909101018F5F9F4F09F44CC0C4010E9439
:100850001F025B016C0180912C0390912D030E947B
:100860001F027B018C01C601B501A80197010E94FE
:10087000B9101816BCF48091000190910101049701
:10088000D1F1809130039091310360E071E00E94DA
:10089000E50A809100019091010101969093010178
:1008A00080930001C601B501A80197010E94E910DB
:1008B00088239CF4809100019091010197FD0DC067
:1008C00001979093010180930001809130039091F2
:1008D000310360E071E00E94E50A90922D0380925E
:1008E0002C039CCF90922D0380922C031092010137
:1008F0001092000193CF80913203909133036FEFF8
:1009000041E093010E944D0B1092010110920001F1
:10091000C9CF0F931F93DF93CF930F92CDB7DEB75D
:100920000E94660DF89487E083BF81E087BF84E66C
:1009300082BF80E090E00E94D906909331038093BB
:10094000300380E08E010F5F1F4FB8010E94F90550
:1009500090932F0380932E0380E0B8010E94F90545
:100960009093330380933203789488EA93E060E0B5
:1009700070E048EB53E020E00E94B0098EEE93E077
:1009800060E070E048EB55E024E00E94B00980EEA2
:1009900092E060E070E048E354E021E00E94B0099A
:1009A00083E793E060E070E048E355E023E00E94D5
:1009B000B0098EE792E060E070E048EB54E022E09E
:1009C0000E94B0090E94E60C80E090E00F90CF9169
:1009D000DF911F910F910895FA01808392931292F3
:1009E00012921292129212921292129212921292E7
:1009F00012921292129212921292129212921292D7
:100A00001292129212921292129212921292629375
:100A10007293129212921292129212921292129255
:100A200080E882933197CF0108950895089508953D
:100A30000895089508950895089508958091BB0537
:100A4000813009F0089580919A078F3FD9F38F5F25
:100A500080939A0708958091BB05813009F008952D
:100A6000F8948091BA058F3F19F08F5F8093BA0593
:100A7000789408958CEF90E00895FF920F931F9360
:100A8000CF93DF93EC018B01F42E3981E32FF0E05B
:100A9000E35EFE4F2081422F50E0FA01EB5EFE4FF5
:100AA0007081DC01A40FB51F16969C911697E92F53
:100AB000F0E0E35EFE4F8081E82FF0E0EB5EFE4F5A
:100AC0006081220F220F220F280F862F8095892305
:100AD00016968C93882321F4872F809538233983A9
:100AE000E22FF0E0EE0FFF1FED51F24F0190F08189
:100AF000E02D1486138617821682118700878F2DAA
:100B00008095958589238587882359F4809194075A
:100B1000872B80939407FA01EB56F84F8081682B5E
:100B20006083822FDF91CF911F910F91FF900895E5
:100B3000CF93DF93EC01A0919B07B0919C07179690
:100B40009C938E93169750968C915097482F50E017
:100B500051963C915197FA01EB56F84F832F8095AF
:100B60009081892380838823A9F452962C91922F17
:100B7000909580919407892380939407FE01E40F58
:100B8000F51F8681832B86838981822B8983DF9160
:100B9000CF91089552962C91F1CFCF93DF93EC0132
:100BA000A0919B07B0919C0750968C915097FE01A5
:100BB000E80FF11D51968C9151978095968189236C
:100BC0008683882339F452969C9152979095898117
:100BD000892389831D961C921D9717961C921E923D
:100BE0001697DF91CF910895FC011182168217822A
:100BF0000895282FDB0180919A078823D9F4F8946F
:100C0000E091E00DF091E10D309779F081819281D2
:100C10009093E10D8093E00D85E080832383128221
:100C2000118278941C92CF01089578948AE98C936C
:100C3000CF0108958DE88C93E0E0F0E0F4CFEF92DF
:100C4000FF920F931F93CF93DF937C01FB01A09141
:100C50009B07B0919C071D968C911D9780621D96F5
:100C60008C931D971C961C930E931B97408721878E
:100C7000B583A483E70189819A819183808313825C
:100C80001282F782E68289819A81009719F0EC013D
:100C90007B836A83E701FA83E9835096EC9150974E
:100CA000F0E0EB56F84F51968C91519780959081DA
:100CB00089238083882341F452969C91909580915A
:100CC0009407892380939407DF91CF911F910F910F
:100CD000FF90EF90089521EC35E0F901CF010496E3
:100CE000108292838183FC0185E0E53EF807B1F72D
:100CF000128211823093E10D2093E00D0895CF937D
:100D0000DF93FC01A281B381C081D181109751F0A2
:100D10001196DC93CE93209711F0BB83AA83DF91C9
:100D2000CF9108950680F781E02DD283C18320976B
:100D3000B1F31B821A82DF91CF9108951F93CF9355
:100D4000DF93EC01AC81BD811C961C921E921B9717
:100D50001A966C931A971D968C911D978F7D1D96F0
:100D60008C931D978823E1F48091940752969C916F
:100D70005297892B809394075096EC915097F0E00E
:100D8000EB56F84F808151969C91892B808311E01E
:100D9000CE010E947F06812FDF91CF911F91089590
:100DA00010E0CE010E947F06812FDF91CF911F912D
:100DB00008959C0180919A078823D9F4F894E091D2
:100DC0009707F0919807309731F08481958190933F
:100DD0009807809397077894309749F081E0808353
:100DE0001382128235832483118216821782CF01E7
:100DF0000895E0E0F0E0CF0108959C0180919A070A
:100E0000882309F052C0F894E0919707F091980771
:100E1000309731F08481958190939807809397075C
:100E200078943097A9F1F894A0919207B091930724
:100E3000109781F18D919C911197909393078093D6
:100E40009207789413963C932E931297CB01880FB8
:100E5000991F820F931F15969C938E931497179644
:100E60003C932E93169719963C932E9318971B96A6
:100E70007C936E931A971D961C921E921C9782E08B
:100E8000808313821282B583A48311821682178213
:100E9000CF01089580919707909198079583848357
:100EA000F0939807E09397077894E0E0F0E0CF01A3
:100EB000089586E896E0FC013E97918380830E9624
:100EC00027E080399207B9F71092830710928207C2
:100ED00088E796E0909393078093920708959C018A
:100EE00080919A078823D9F4F894E0919707F091BC
:100EF0009807309731F0848195819093980780937B
:100F000097077894309749F083E080833383228376
:100F100015821482118216821782CF010895E0E0B3
:100F2000F0E0CF0108951F93CF93DF93182FF8942B
:100F3000C0917406D0917506209709F456C08A8135
:100F40009B81909375068093740678947983688367
:100F50001E871D861C861B86E12FE695E695E69585
:100F6000E88BF0E0EB5EFE4F80818A8BE12FE7702B
:100F7000EF87F0E0EB5EFE4F8081898B1F821E823F
:100F800019861886CE010E941D05CE010E94150506
:100F9000F894E12FF0E0EE0FFF1FED51F24FD183F7
:100FA000C083E091EA05F091EB05FB83EA831D82A3
:100FB0001C82309711F0D583C483D093EB05C09386
:100FC000EA05809194079A89892B80939407E88990
:100FD000F0E0EB56F84F80819989892B80837894D3
:100FE00080E0DF91CF911F910895789486E4DF919E
:100FF000CF911F910895F8948091BC059091BD0503
:10100000A091BE05B091BF050196A11DB11D8093B1
:10101000BC059093BD05A093BE05B093BF05789421
:101020000E941C05E8CFF89480919A07882309F064
:101030003FC08091BA058823D9F5E0919407F0E08C
:10104000E35EFE4F8081E82FF0E0EB56F84FE08141
:10105000F0E0E35EFE4F982F990F990F990F808172
:10106000980F9093C0058091E905981709F1E92F31
:10107000F0E0EE0FFF1FED51F24F808191819093D0
:1010800091078093900780916C0690916D06A091D6
:101090006E06B0916F060196A11DB11D80936C067E
:1010A00090936D06A0936E06B0936F060E94140E87
:1010B000789408959C01009721F1F894A0919B07E2
:1010C000B0919C075096EC915097F0E0EB56F84F9A
:1010D00051968C91519780959081892380838823A4
:1010E00049F452969C915297909580919407892348
:1010F000809394071C963C932E931B9778940E94A0
:10110000130808958F929F92AF92BF92CF92DF9271
:10111000EF92FF920F931F93CF93DF93882E162F9A
:10112000942E8823C9F01C3300F58BE3891590F0C9
:1011300093E0283E3907D8F083E5DF91CF911F91E6
:101140000F91FF90EF90DF90CF90BF90AF909F9066
:101150008F90089582E5F1CF662329F7442329F77C
:101160002115310529F784E5E8CF81E5E6CFB901FE
:1011700080E090E024E630E040E050E00E946C1314
:101180006C507E4F8F4F9F4F28EE33E040E050E091
:101190000E94AA1359016A01612F70E080E090E07B
:1011A0002CE330E040E050E00E946C137B018C01A6
:1011B000E90CF11C011D111D682D70E080E090E02C
:1011C00020E13EE040E050E00E946C13E60EF71E86
:1011D000081F191FC801B70124E630E040E050E0C5
:1011E0000E946C13A60EB71EC81ED91E76010027DA
:1011F0001127E7018FEF9FEFA0E0B0E0A822B9220E
:10120000CA22DB22C5010E945A08EF2851F080E073
:1012100090E80E945A0880E090E80E945A082197BE
:10122000B1F780E08ACFDF92EF92FF920F931F9386
:101230008091E20D882341F488EC90E00E945A08E6
:101240008091E20D8823C1F3609170067091710660
:10125000809172069091730624E630E040E050E001
:101260000E94AA13C901DA017C018D01E4E6DE2E99
:1012700010C0A80197010E94AA138D2D821B87FD23
:1012800044C0809376060E94180584E690E00E9490
:101290005A08F8948091BC059091BD05A091BE05B7
:1012A000B091BF058093FD0D9093FE0DA093FF0DAF
:1012B000B093000E6091BC057091BD058091BE0594
:1012C0009091BF051092BC051092BD051092BE050D
:1012D0001092BF057894E114F1040105110549F657
:1012E0001092760660917006709171068091720678
:1012F0009091730624E630E040E050E00E94AA138B
:10130000C901DA017C018D01BECF10927606BBCFF8
:1013100082E090E00E945A08F8941092BC05109266
:10132000BD051092BE051092BF05789484E690E04A
:101330000E945A08F8948091BC059091BD05A09137
:10134000BE05B091BF058093700690937106A0937F
:101350007206B093730681E08093E20D789408954D
:10136000AF92BF92CF92DF92EF92FF920F931F93B3
:10137000CF93DF93FC01122FF894C22FD0E0CC0F53
:10138000DD1FCD51D24F88819981892B71F07894DE
:1013900018E2812FDF91CF911F910F91FF90EF9075
:1013A000DF90CF90BF90AF90089581E090E0998357
:1013B00088837894CF0120E030E00E94EC04BC01E7
:1013C000812F40E050E020E030E0EE24FF24870150
:1013D000CC24DD24AA24BB240E949307182F882341
:1013E00071F4F894809177068F5F809377067894F4
:1013F0008091BB05813069F60E941308CACFF8942A
:10140000198218827894C5CFFC01F89481818823D1
:1014100079F4828193812FEF8F3F920731F001960B
:1014200093838283789480E00895789482E308958A
:10143000CF0160E070E041E00E943D0578940E9499
:10144000130880E008950F931F93CF93DF93EC016F
:101450008A0180919A07882381F4F8948A819B817C
:10146000009799F001979B838A837894FA01108200
:10147000DF91CF911F910F91089582E0FA0180834F
:10148000DF91CF911F910F910895E0919B07F0910B
:101490009C0785858160858774876387CE010E945C
:1014A000980578940E941308F894E0919B07F091B6
:1014B0009C07858580FD0AC0178216827894F80102
:1014C0001082DF91CF911F910F910895CE010E945C
:1014D000CD0578948AE0F8018083CACFEF92FF921D
:1014E0000F931F93CF93DF938C017A0180919A071A
:1014F000882309F05CC0F894F801A481B5811C969A
:101500008D919C911D97009709F11896ED91FC9192
:101510001997C191D1911996FC93EE931897019761
:101520001D969C938E931C9714968D919C91159764
:10153000E817F90799F17894F7011082CE01DF914D
:10154000CF911F910F91FF90EF900895E0919B072D
:10155000F0919C0785858460858774876387C801BF
:101560000E94980578940E941308F894E0919B07D4
:10157000F0919C07C085D1852097F9F011861086DF
:101580001586178216827894F7011082CE01DF91BA
:10159000CF911F910F91FF90EF90089512968D912A
:1015A0009C91139719969C938E931897C4CF82E0C1
:1015B000FA018083C0E0D0E0C1CFC8010E94CD0510
:1015C00078948AE0F7018083B9CFFC01F894818197
:1015D000882339F484819581892B61F0789484E1A2
:1015E0000895CF0142E00E943D0578940E941308BF
:1015F00080E0089575836483789480E00895EF9285
:10160000FF920F931F93CF93DF938C017A01809108
:101610009A078823A1F5F894F801C481D581209711
:1016200069F0158214827894FA011082CE01DF915C
:10163000CF911F910F91FF90EF900895E0919B073C
:10164000F0919C0785858260858774876387C801D0
:101650000E94980578940E941308F894E0919B07E3
:10166000F0919C07C085D185209779F0118610866E
:101670001586178216827894F7011082D7CF82E000
:10168000FA018083C0E0D0E0D1CFC8010E94CD052F
:1016900078948AE0F7018083C9CFCF92DF92EF92EE
:1016A000FF920F931F93DF93CF930F92CDB7DEB7C7
:1016B0008C017901F894442309F054C06095FC0131
:1016C000838186238383F801C180D280C114D10431
:1016D00009F458C019820AC08330B1F1F601808143
:1016E00091819C01690121153105D1F0F6018185B7
:1016F000823091F7F6016085F801838186236817AF
:1017000069F7C6010E949E06813041F7F1E0F98336
:10171000F601808191819C0169012115310531F724
:101720007894F981F13059F1F894F8018381789433
:10173000F70110820F90CF91DF911F910F91FF90D1
:10174000EF90DF90CF900895F6016085F8018381D6
:10175000682309F4C3CFC6010E949E06813009F0B8
:10176000BDCFD4CF413031F0789489E9F90180833D
:1017700080E0E0CFFC018381862B8383A4CF0E948D
:101780001308D2CF1982CCCF8F929F92AF92BF9283
:10179000CF92DF92FF920F931F93DF93CF93CDB73A
:1017A000DEB72B970FB6F894DEBF0FBECDBF6C012E
:1017B000562FF42EF901580180919A07882309F5D4
:1017C00047FD24C01B86F89482E0F81639F1A3E0A7
:1017D000FA16C9F1789487E9F501808380E02B96A9
:1017E0000FB6F894DEBF0FBECDBFCF91DF911F9132
:1017F0000F91FF90DF90CF90BF90AF909F908F9010
:10180000089582E0D8018C9380E0E9CFBFE7FB2206
:1018100021E02B87F89482E0F816C9F6D6011396DA
:101820009C91852F8923851709F5BB85B13031F44B
:10183000852F80958923F6018383982F892F7894AB
:10184000D5011C92CCCFD60113969C91852F89236C
:1018500069F1BB85B13029F480958923F601838332
:10186000982F892F7894D5011C92B9CFC6014E01CB
:101870000894811C911CB401452F22E08F010E9425
:101880001F0678940E941308F894E0919B07F0914A
:101890009C07858585FD17C0BB85B13011F1F60128
:1018A0009381892F7894D5011C9299CFC6014E015E
:1018B0000894811C911CB401452F23E08F010E94E4
:1018C0001F067894DFCFC4010E947F06E0919B073A
:1018D000F0919C07158678948AE0D5018C9380E07E
:1018E0007ECF2EEFF20E81E08F1520F4D6011396F5
:1018F0009C91D7CF82858095F6019381982393831D
:10190000D0CF8091BB05813009F00895F894809183
:10191000BA05882359F081508093BA05882321F4B1
:1019200080919A07882321F07894089578940895F7
:1019300078940E94130808950E9419058091BB05B0
:10194000813009F00895A091EA05B091EB051E964B
:101950008C911E978C30B1F32091940741E050E0B8
:101960001AC052968C915297282B5096EC91509712
:10197000F0E0EB56F84F808151969C915197892B5E
:10198000808312960D90BC91A02D78941E968C9118
:101990001E978C30C1F0F8941B968D919C911C97EA
:1019A000009779F301971C969C938E931B97892B34
:1019B00041F71D968C911D9783FFD3CF1C965C93A6
:1019C0004E931B97DECF2093940708958091BB051B
:1019D00081110895E0919407F0E0E35EFE4FA0814D
:1019E000EA2FF0E0EB56F84FE081F0E0E35EFE4FC7
:1019F000AA0FAA0FAA0F8081A80FA093C005A093D9
:101A0000E905B0E0AA0FBB1FAD51B24F8D919C917B
:101A1000909391078093900790939C0780939B07E6
:101A20000E94E00D08958091BB05813009F0089572
:101A3000F89480919A07882339F0815080939A070F
:101A4000882311F0789408958091BA058823D1F7FE
:101A5000E0919407F0E0E35EFE4F80818093990768
:101A6000E82FF0E0EB56F84FE081F0E0E35EFE4F48
:101A7000982F990F990F990F8081980F9093C00517
:101A80008091E9059817F1F2E92FF0E0EE0FFF1FC2
:101A9000ED51F24F8081918190939107809390074F
:101AA00080916C0690916D06A0916E06B0916F06C4
:101AB0000196A11DB11D80936C0690936D06A093B5
:101AC0006E06B0936F060E94770EBCCF0E941A0577
:101AD00010929A071092BA05109277061092BB05E1
:101AE00010926C0610926D0610926E0610926F06A0
:101AF0001092BC051092BD051092BE051092BF0554
:101B00001092940710929507109296071092E9058B
:101B10001092C005109291071092900710929C07A6
:101B200010929B071092EB051092EA05E3EEFDE0A0
:101B3000119211922DE0ED3FF207D1F780E299E08A
:101B4000FC0171979183808343962DE0803E92073C
:101B5000B9F71092D00D1092CF0D8DE099E09093CF
:101B60007506809374062DE138E0F901CF010896DF
:101B7000108295838483FC0189E0E530F807B1F792
:101B800010821582148230939807209397070E9441
:101B90006B060E9459078BEF97E060E070E04CE124
:101BA00058E02CE00E94B00983E199E060E070E029
:101BB0004BE656E02BE00E94B0090E941B050895F9
:101BC0000E9417050091BB0503950093BB05E091AA
:101BD0009007F0919107C191CDBFD191DEBF0F91D8
:101BE0000FBF0F910BBFFF91EF91DF91CF91BF918D
:101BF000AF919F918F917F916F915F914F913F91A5
:101C00002F911F910F91FF90EF90DF90CF90BF9099
:101C1000AF909F908F907F906F905F904F903F908C
:101C20002F901F900F9008950F921F922F923F9226
:101C30004F925F926F927F928F929F92AF92BF92DC
:101C4000CF92DF92EF92FF920F931F932F933F93C8
:101C50004F935F936F937F938F939F93AF93BF93B4
:101C6000CF93DF93EF93FF930BB70F930FB70F93C0
:101C7000E0919B07F0919C07CDB7C193DEB7D1935C
:101C80000E9417050091C0050093E905E0919007B7
:101C9000F0919107E0939B07F0939C07C191CDBF12
:101CA000D191DEBF0F910FBF0F910BBFFF91EF914D
:101CB000DF91CF91BF91AF919F918F917F916F9164
:101CC0005F914F913F912F911F910F91FF90EF9056
:101CD000DF90CF90BF90AF909F908F907F906F904C
:101CE0005F904F903F902F901F900F9008950E940B
:101CF00017050091C0050093E905E0919007F09168
:101D00009107E0939B07F0939C07C191CDBFD191C0
:101D1000DEBF0F910FBF0F910BBFFF91EF91DF91CE
:101D2000CF91BF91AF919F918F917F916F915F9173
:101D30004F913F912F911F910F91FF90EF90DF9066
:101D4000CF90BF90AF909F908F907F906F905F905B
:101D50004F903F902F901F900F9008950F921F92D9
:101D60002F923F924F925F926F927F928F929F92AB
:101D7000AF92BF92CF92DF92EF92FF920F931F9399
:101D80002F933F934F935F936F937F938F939F9383
:101D9000AF93BF93CF93DF93EF93FF930BB70F9363
:101DA0000FB700680F9300919A07039500939A0765
:101DB000013041F4CDB7DEB7E0919B07F0919C076D
:101DC000C193D19304E602BF78940E949C0C00005A
:101DD0000E94130D0F910FBF0F910BBFFF91EF9159
:101DE000DF91CF91BF91AF919F918F917F916F9133
:101DF0005F914F913F912F911F910F91FF90EF9025
:101E0000DF90CF90BF90AF909F908F907F906F901A
:101E10005F904F903F902F901F900F900895A0E0FB
:101E2000B0E0E5E1FFE00C94E013DC012B01FA01E6
:101E30009C91923008F439C1EB018881823008F41A
:101E400033C1943069F4843009F02FC111969C910C
:101E500011978981981709F428C1ADE1B2E025C135
:101E6000843009F421C18230A9F4923009F01DC1F7
:101E70009A01AD0188E0EA010990AE01E9010992F9
:101E80009E018150C1F7E201898111969C918923BD
:101E9000818308C1923009F407C112962D903C90BD
:101EA0001397EB018A819B811496AD90BD90CD90E4
:101EB000DC901797EC80FD800E811F819101281B1B
:101EC000390BB90137FF04C066277727621B730BF4
:101ED000603271050CF061C0121613066CF5370103
:101EE0004801062E04C096948794779467940A94C8
:101EF000D2F721E030E040E050E004C0220F331F71
:101F0000441F551F6A95D2F7215030404040504041
:101F10002E213F2140235123211531054105510533
:101F200021F021E030E040E050E079018A01E6282C
:101F3000F728082919293CC0232BD1F1260E371E7A
:101F400035014601062E04C09694879477946794D1
:101F50000A94D2F721E030E040E050E004C0220FC4
:101F6000331F441F551F6A95D2F72150304040401F
:101F700050402A213B214C215D212115310541058D
:101F8000510521F021E030E040E050E059016A01C4
:101F9000A628B728C828D9280BC0821593052CF08D
:101FA0001C01AA24BB24650103C0EE24FF24870181
:101FB00011969C91D20111968C91981709F445C005
:101FC000992339F0A80197012A193B094C095D09A9
:101FD00006C0A60195012E193F09400B510B57FD74
:101FE00008C011823382228224833583468357833B
:101FF0001DC081E081833382228288279927DC01FA
:10200000821B930BA40BB50B84839583A683B783A4
:102010000DC0220F331F441F551F24833583468371
:1020200057838281938101979383828324813581B1
:1020300046815781DA01C9010197A109B1098F5F72
:102040009F4FAF4FBF4328F30BC09183338222824F
:10205000EA0CFB1C0C1D1D1DE482F5820683178310
:1020600083E08083248135814681578157FF1AC0E0
:10207000C901AA2797FDA095BA2F81709070A07012
:10208000B0705695479537952795822B932BA42BA7
:10209000B52B84839583A683B78382819381019630
:1020A00093838283DF0101C0D201CD01CDB7DEB7BA
:1020B000E2E10C94FC13A0E2B0E0E1E6F0E10C9464
:1020C000EC1369837A838B839C832D833E834F83B8
:1020D0005887E9E0EE2EF12CEC0EFD1ECE010196A4
:1020E000B7010E949B128E010F5E1F4FCE01059615
:1020F000B8010E949B128A8991E089278A8BC701C7
:10210000B801AE01475E5F4F0E940F0F0E94C611DB
:10211000A096E6E00C940814A0E2B0E0E2E9F0E159
:102120000C94EC1369837A838B839C832D833E8389
:102130004F835887F9E0EF2EF12CEC0EFD1ECE01F7
:102140000196B7010E949B128E010F5E1F4FCE01B8
:102150000596B8010E949B12C701B801AE01475E07
:102160005F4F0E940F0F0E94C611A096E6E00C94EC
:102170000814A8E1B0E0EFEBF0E10C94EC136983F4
:102180007A838B839C832D833E834F83588789E09A
:10219000E82EF12CEC0EFD1ECE010196B7010E9437
:1021A0009B128E010F5E1F4FCE010596B8010E9453
:1021B0009B128985823040F08989823028F0C701DE
:1021C000B8010E94131301C08FEF6896E6E00C94EB
:1021D0000814A8E1B0E0EFEEF0E10C94EC13698391
:1021E0007A838B839C832D833E834F83588789E03A
:1021F000E82EF12CEC0EFD1ECE010196B7010E94D7
:102200009B128E010F5E1F4FCE010596B8010E94F2
:102210009B128985823040F08989823028F0C7017D
:10222000B8010E94131301C081E06896E6E00C94A7
:102230000814A8E0B0E0EFE1F1E10C94E9139B0190
:10224000AC0183E08983DA01C9018827B7FD839552
:102250009927AA27BB27B82E21153105410551051D
:1022600019F482E089833AC08823A9F0203080E005
:10227000380780E0480780E8580729F460E070E0FC
:1022800080E09FEC30C0EE24FF248701E21AF30ABD
:10229000040B150B02C079018A018EE1C82ED12CE6
:1022A000DC82CB82ED82FE820F831887C801B701E2
:1022B0000E94771101971816190684F4082E04C09D
:1022C000EE0CFF1C001F111F0A94D2F7ED82FE8254
:1022D0000F831887C81AD90ADC82CB82BA82CE0152
:1022E00001960E94C6112896E9E00C940514EF921D
:1022F000FF920F931F937B018C0180E0E81680E032
:10230000F80681E0080780E0180788F48FEFE816E8
:10231000F1040105110531F028F088E090E0A0E01B
:10232000B0E017C080E090E0A0E0B0E012C080E034
:10233000E81680E0F80680E0080781E0180728F03A
:1023400088E190E0A0E0B0E004C080E190E0A0E08F
:10235000B0E020E230E040E050E0281B390B4A0BAF
:102360005B0B04C016950795F794E7948A95D2F70E
:10237000F701EB5DFD4F8081281B310941095109AF
:10238000C9011F910F91FF90EF900895DF92EF9296
:10239000FF920F931F93FC01E480F5800681178163
:1023A000D1808081823048F480E090E0A0E1B0E00C
:1023B000E82AF92A0A2B1B2BA5C0843009F49FC0F8
:1023C000823021F4EE24FF24870105C0E114F104DA
:1023D0000105110519F4E0E0F0E096C06281738117
:1023E0009FEF623879070CF05BC022E83FEF261BB5
:1023F000370B2A3131052CF020E030E040E050E08E
:102400002AC0B801A701022E04C07695679557959A
:1024100047950A94D2F781E090E0A0E0B0E004C0D4
:10242000880F991FAA1FBB1F2A95D2F70197A109F0
:10243000B1098E219F21A023B1230097A105B105E9
:1024400021F081E090E0A0E0B0E09A01AB01282B00
:10245000392B4A2B5B2BDA01C9018F779070A07062
:10246000B07080349105A105B10539F427FF09C08A
:10247000205C3F4F4F4F5F4F04C0215C3F4F4F4F99
:102480005F4FE0E0F0E02030A0E03A07A0E04A072C
:10249000A0E45A0710F0E1E0F0E079018A0127C0DA
:1024A0006038710564F5FB01E158FF4FD801C701A1
:1024B0008F779070A070B07080349105A105B10540
:1024C00039F4E7FE0DC080E490E0A0E0B0E004C085
:1024D0008FE390E0A0E0B0E0E80EF91E0A1F1B1F9A
:1024E00017FF05C016950795F794E794319687E096
:1024F00016950795F794E7948A95D1F705C0EE24D1
:10250000FF248701EFEFF0E06E2F67956627679550
:10251000902F9F77D794DD24D7948E2F8695492FBF
:10252000462B582F5D29B701CA011F910F91FF90CB
:10253000EF90DF900895FC01DB0140815181228101
:10254000622F6F7770E0221F2227221F9381892F2D
:10255000880F822B282F30E0991F9927991F1196F9
:102560009C93119721153105A9F541155105610578
:10257000710511F482E037C082E89FEF13969C93B7
:102580008E9312979A01AB0167E0220F331F441F0D
:10259000551F6A95D1F783E08C930DC0220F331F2E
:1025A000441F551F12968D919C9113970197139676
:1025B0009C938E931297203080E0380780E0480784
:1025C00080E4580758F314962D933D934D935C93F4
:1025D000179708952F3F310579F44115510561058D
:1025E000710519F484E08C93089564FF03C081E0C1
:1025F0008C9312C01C9210C02F57304013963C93FE
:102600002E93129783E08C9387E0440F551F661F2B
:10261000771F8A95D1F7706414964D935D936D93EF
:102620007C93179708951F93DC01FB019C919230D6
:1026300008F447C08081823008F443C0943051F4DC
:1026400011961C91843099F58181682F70E0611B8F
:1026500071093FC0843021F0923031F48230B9F1F9
:102660008181882389F12DC011961C9111978230A8
:10267000F1F081811817D9F412962D913C9113979E
:10268000828193818217930794F028173907BCF051
:1026900014968D919D910D90BC91A02D2481358132
:1026A00046815781281739074A075B0718F4112319
:1026B00041F00AC082179307A407B50740F411231D
:1026C00019F061E070E005C06FEF7FEF02C060E0DD
:1026D00070E0CB011F910895629FD001739FF001BC
:1026E000829FE00DF11D649FE00DF11D929FF00DA2
:1026F000839FF00D749FF00D659FF00D9927729FD9
:10270000B00DE11DF91F639FB00DE11DF91FBD0163
:10271000CF0111240895991B79E004C0991F9617E1
:1027200008F0961B881F7A95C9F78095089597FB46
:10273000092E07260AD077FD04D02ED006D000201F
:102740001AF4709561957F4F0895F6F790958195ED
:102750009F4F0895A1E21A2EAA1BBB1BFD010DC0BD
:10276000AA1FBB1FEE1FFF1FA217B307E407F50741
:1027700020F0A21BB30BE40BF50B661F771F881F1D
:10278000991F1A9469F760957095809590959B01B3
:10279000AC01BD01CF010895AA1BBB1B51E107C0CD
:1027A000AA1FBB1FA617B70710F0A61BB70B881FE1
:1027B000991F5A95A9F780959095BC01CD01089570
:1027C0002F923F924F925F926F927F928F929F9241
:1027D000AF92BF92CF92DF92EF92FF920F931F932F
:1027E000CF93DF93CDB7DEB7CA1BDB0B0FB6F894E0
:1027F000DEBF0FBECDBF09942A88398848885F8420
:102800006E847D848C849B84AA84B984C884DF8090
:10281000EE80FD800C811B81AA81B981CE0FD11D74
:102820000FB6F894DEBF0FBECDBFED010895F8944A
:02283000FFCFD8
:10283200FFFF01030F3F7F2B723F065B4F666D7CEC
:10284200077F674000010204081020408000000159
:102852000002000100030001000200010004000167
:102862000002000100030001000200010005000156
:102872000002000100030001000200010004000147
:102882000002000100030001000200010006000135
:102892000002000100030001000200010004000127
:1028A2000002000100030001000200010005000116
:1028B2000002000100030001000200010004000107
:1028C20000020001000300010002000100070001F4
:1028D20000020001000300010002000100040001E7
:1028E20000020001000300010002000100050001D6
:1028F20000020001000300010002000100040001C7
:1029020000020001000300010002000100060001B4
:1029120000020001000300010002000100040001A6
:102922000002000100030001000200010005000195
:102932000002000100030001000200010004000186
:10294200000200010003000100020001000000007B
:102952000000000000000102020303030304040458
:10296200040404040405050505050505050505051A
:1029720005050505050606060606060606060606FA
:1029820006060606060606060606060606060606E5
:1029920006060606060707070707070707070707CA
:1029A20007070707070707070707070707070707B5
:1029B20007070707070707070707070707070707A5
:1029C2000707070707070707070707070707070795
:1029D200070707070708080808080808080808087A
:1029E2000808080808080808080808080808080865
:1029F2000808080808080808080808080808080855
:102A02000808080808080808080808080808080844
:102A12000808080808080808080808080808080834
:102A22000808080808080808080808080808080824
:102A32000808080808080808080808080808080814
:102A42000808080808080808080808080808080804
:062A520008080808080056
:00000001FF
